:400000000000002011000000310400003104000080B500AF054A054B1B6843F020031360034A044B1B68136000F006FAE8460040BC760040FA4600400800022300000876C9
:400040000800032300001076080004230000287608000523000030760500062300002070050007230000307005000823000060700500FE230000707010000A220000005109
:4000800040000B220000305110000C220000C0511000FE220000F05180050E220000000000020F2200000006000410220000000C0004112200000014800012220000004122
:4000C000800013220000004200021422000000438000152200000046800016220000004700021722000000488000FE220000004D070019230000085207001A2300001052DF
:4001000020001B23000070642000FE230000706508001D230000005180001E230000000880001F2300008008800020230000000A800021230000800A8000222300000018D3
:400140008000232300008018800024230000001A800025230000801A10002623000010501000272300000050800028230000804D800029230000004C80002A230000804C32
:4001800080002B230000804780002C230000804680002D230000004580002E230000804580002F230000001B800030230000801B80003123000000198000322300008019B4
:4001C00080003323000000098000342300008009800035230000000B800036230000800B80003723000080058000382300008042800039230000804180003A2300000040C3
:400200008000FE23000080400100000001000000010000000048014001000000004800400100000000200140010000000020004010B5054C237833B9044B13B10448AFF3E7
:4002400000800123237010BD2081FF1F0000000078140000084B10B51BB108480849AFF300800848036803B910BD074B002BFBD0BDE81040184700BF00000000781400005D
:400280002481FF1F0881FF1F0000000080B582B000AF00F0E3FB0346C3F549730133FB80FB8803F007039BB2002B39D1FB88B3F5407F10D21C4B1B78DB0003F1804303F532
:4002C000F0430433FA88D20892B2D20117490A4492B21A8024E0FB88B3F5407F20D1144B1B68002B1CD0134B1B78184600F0E0FE0F4B1B68002B0DD00C4A0F4B11461A4654
:400300004FF44053084611461A4601F0A1F8084B00221A60074B1B781846012100F082FE0837BD4680BD00BF5181FF1F000000200C81FF1F5081FF1F5481FF1F80B400AFD6
:40034000054B01221A6000BF034B1B68002BFBD1BD465DF8047B70470C81FF1F80B582B000AF00F0B3FF03461A462D4B1A700120002141F6FF724FF4804300F029FC03461F
:400380001A46284B1A70264B1A78254B1B78104680211A46052300F0C7FF214B1B781846002146F2795200F0FFFF1E4B1A781C4B1B781046194600F01BFF1A4B1B7818462C
:4003C000012100F02FFE00F079FB00F0E3FA00F0F9FC00F07FFC144800F02EFC00F06AFD62B600237B6000233B6010493B68DA017B6813440B4407221A707B6801337B6097
:400400007B68802B0BD100237B603B6801333B603B68602B03D100233B60FFF78FFFE4E75181FF1F5081FF1F8D0200005481FF1F80B400AFFEE700BF80B586B000AF214B65
:400440007B61214B3B611F4B7B611F4B3B612FE03B691B68FB603B695B68BB603B699B683B6000237B600AE0BB681A1DBA60FA68111DF96012681A607B6804337B607A68E7
:400480003B689A42F0D13B69DB683B6000237B6007E0BB681A1DBA6000221A607B6804337B607A683B689A42F3D13B6910333B617B695A1E7A61002BCAD100F0A3FFFFF763
:4004C0004DFFFEE7010000008815000080B582B000AF184B184A1A60184A184B1B6843F40073136000237B600FE07B68032B04D8134A7B6852F8233000E0124B12497A6842
:4005000041F822307B6801337B607B682F2BECD90E4B1B78DAB20E4B1A700E4B0A4A1A6000F0CEF900F050FD0B4B00221A600837BD4680BD0CED00E00004FA0514ED00E098
:4005400000000000310400000080FF1FBC7600400481FF1F08ED00E00081FF1F80B582B000AF78603960786800213A6800F07BFF0837BD4680BD00BF80B584B000AFF860DD
:40058000B9607A60F868B9687A6800F061FF1037BD4680BD80B483B000AF0346FB71FEE780B582B000AF454B00221A60444B10221A70444B01221A70434B00221A70434BCD
:4005C0004FF4E8721A80424B01221A70414B03221A70414B414A92B21A80414B47F608021A80404B00221A803F4B4FF480421A803E4B09221A703E4B0D221A703D4B18223B
:400600001A703D4B1C221A70BFF35F8F3B4B01221A70BFF35F8F00BF2C4B1B889BB2002BFAD100237B600DE07B68DA00344B13441946344A7B6852F823309BB20B807B68BB
:4006400001337B607B68392BEED9BFF35F8F2B4B01221A70BFF35F8F00BF2B4B1B78DBB203F00103002BF8D100BF284B1B78DBB203F00103002BF8D100BF254B1B78DBB22E
:4006800003F00103002BF8D100BF224B1B78DBB203F00103002BF8D100BF1F4B1B78DBB203F00103002BF8D11C484FF090410622FFF762FF0837BD4680BD00BF4081FF1FD4
:4006C000007600401070004019700040007800400278004003780040047800403800000006780040047600400676004029700040397000406970004079700040147000409E
:400700000C7800407C14000018700040287000403870004068700040787000401051014080B582B000AF454B07221A80444B18221A70444B40F2A7121A80434B18221A70D9
:40074000424B02221A704FF0402308221A70404B43F213321A803F4B05221A703D4B1B7843F2C8237B6006E04FF4F07000F01CFC7B68013B7B607B68002B06D0354B1B7876
:40078000DBB2DBB25BB2002BEEDB7B68002B02D10120FFF7FFFE4FF0402348221A702E4B20221A702D4B40F626521A802C4B41F251221A800023FB7019237B6014E0FB78CB
:4007C0005B00DAB2274B1B78DBB203F00103DBB21343DBB203F00303FB704FF4F07000F0E3FB7B68013B7B607B68002B02D0FB78032BE4D17B68002B02D10320FFF7CAFE52
:40080000194B4FF480721A80174B07221A70174B00221A70164B48221A70134B00221A70144B02221A70144A134B1B78DBB243F00303DBB213700837BD4680BD8040004052
:400840008240004084400040864000400043004012420040104200400042004022420040204200402542004004400040064000400840004001400040A243004080B483B0B5
:4008800000AF0B4B1B78FB710A4AFB7903F00703DBB21370084AFB791B09DBB21370074B44221A700C37BD465DF8047B704700BFCF0100496E5800406F580040765800405F
:4008C00080B500AF72B6264A254B1B78DBB243F02403DBB21370FFF763FE22480421FFF73DFE214A204B1B78DBB243F00203DBB213701E4A1D4B1B78DBB243F00203DBB278
:4009000013701B4A1A4B1B78DBB243F04003DBB21370184A174B1B78DBB243F01003DBB21370154815490A22FFF726FE144815490822FFF721FE144A134B1B78DBB243F081
:400940000803DBB21370114B01221A70FFF7E8FEFFF794FF0E4806490E22FFF70DFE80BDE8460040007600400350014013500140A0430040C243004010510040800E0048A0
:40098000225100408C0E00482243004000480040B043004080B500AF054B1B78002B04D100F008F8024B01221A7000F037F880BD4881FF1F80B582B000AF154B1B78DBB2B8
:4009C00023F03F03FB71124AFB7943F02103DBB21370104A0F4B1B78DBB243F00103DBB213700D4A0C4B1B78DBB243F00103DBB2137040F2253000F021F840F2253000F0C8
:400A00003DF8262000F04AF80837BD4680BD00BF796400409A6500409B65004080B400AF054A054B1B78DBB263F07F03DBB21370BD465DF8047B70477964004080B483B096
:400A400000AF0346FB80044AFB8813800C37BD465DF8047B704700BF146A004080B400AF044B1B88044B1B889BB21846BD465DF8047B7047346A0040B46A004080B483B0AE
:400A800000AF0346FB80044AFB8813800C37BD465DF8047B704700BF946A004080B483B000AF0346FB80044AFB8813800C37BD465DF8047B704700BF546A004080B500AFE1
:400AC000054B1B78002B04D100F008F8024B01221A7000F02DF880BD4981FF1F80B582B000AF114B1B78DBB223F03F03FB710E4AFB7943F00A03DBB213700C4A0B4B1B7841
:400B0000DBB243F00103DBB21370A72000F020F8A72000F02DF8012000F03AF8282000F047F80837BD4680BD786400409864004080B400AF054A054B1B78DBB263F07F032E
:400B4000DBB21370BD465DF8047B70477864004080B483B000AF0346FB71044AFB7913700C37BD465DF8047B704700BF0864004080B483B000AF0346FB71044AFB7913705F
:400B80000C37BD465DF8047B704700BF4864004080B483B000AF0346FB71044AFB7913700C37BD465DF8047B704700BF2864004080B483B000AF0346FB71044AFB7913703D
:400BC0000C37BD465DF8047B704700BF3864004090B585B002AF0446084611461A462346FB710346BB710B46BB8013467B80114B00221A700F4B1878F979BA790023009398
:400C000000230193002300F011FB0A4B1978BA887B88084611461A4600F0ACFA054B1B781846002100F076FA024B1B7818460C37BD4690BD1081FF1F80B582B000AF7860E8
:400C400000F03CF8786800F009F8072000F018F800F028F80837BD4680BD00BF80B485B000AF7860054B1B68FB60FB6840337A681A601437BD465DF8047B704708ED00E00C
:400C800080B483B000AF0346FB71054AFB795B01DBB213700C37BD465DF8047B704700BF00E400E080B400AF034B01221A60BD465DF8047B704700BF00E100E080B400AF27
:400CC000034B01221A60BD465DF8047B704700BF80E100E080B500AF054B1B78002B04D100F008F8024B01221A7000F02BF880BD4A81FF1F80B582B000AF104B1B78DBB200
:400D000023F03F03FB710D4AFB7943F00803DBB213700B4A0A4B1B78DBB243F00103DBB21370062000F01EF8062000F02BF8062000F038F80837BD4680BD00BF7A640040C1
:400D40009965004080B400AF054A054B1B78DBB263F07F03DBB21370BD465DF8047B70477A64004080B483B000AF0346FB71044AFB7913700C37BD465DF8047B704700BF62
:400D80000965004080B483B000AF0346FB71044AFB7913700C37BD465DF8047B704700BF4965004080B483B000AF0346FB71044AFB7913700C37BD465DF8047B704700BF57
:400DC0002965004080B500AF054B1B78002B04D100F008F8024B01221A7000F02BF880BD4B81FF1F80B582B000AF104B1B78DBB223F03F03FB710D4AFB7943F00803DBB252
:400E000013700B4A0A4B1B78DBB243F00103DBB21370112000F01EF8112000F02BF8112000F038F80837BD4680BD00BF7A6500409964004080B400AF054A054B1B78DBB216
:400E400063F07F03DBB21370BD465DF8047B70477A65004080B483B000AF0346FB71044AFB7913700C37BD465DF8047B704700BF0964004080B483B000AF0346FB71044A7A
:400E8000FB7913700C37BD465DF8047B704700BF4964004080B483B000AF0346FB71044AFB7913700C37BD465DF8047B704700BF2964004080B500AF054B1B78002B04D18A
:400EC00000F008F8024B01221A7000F023F880BD4C81FF1F80B400AF094B72221A70094B20221A70084B07221A70084B48221A70074B00221A70BD465DF8047B704700BFC8
:400F00008B650040886500402B6400403B6400408B64004080B582B000AF00F04DF80346FB71104A0F4B1B78DBB243F02003DBB213700D4A0C4B1B78DBB243F01003DBB29C
:400F400013700A4A094B1B78DBB243F01003DBB2137000F00DF8FB79184600F031F80837BD4680BD9B650040986500409B64004080B400AF094A094B1B78DBB243F00203D3
:400F8000DBB21370064A064B1B78DBB243F00203DBB21370BD465DF8047B7047A2430040B2430040000000000230800803D000BF01380046FCD17047EFF3108072B6704790
:400FC00080F31088704700BF80B483B000AF134B7F221A70124B80221A707F23FB710CE0FB79DB0003F1804303F5F043FA79013AD2B21A70FB79013BFB71FB79002BEFD1E6
:40100000FB79DB0003F1804303F5F04300221A700C37BD465DF8047B704700BF1581FF1F1481FF1F80B485B000AF03460A46FB711346BB710123FB60FB79172B2FD8BB79CA
:40104000002B0ED0FB791A01184B1344FA791101164A0A441278D2B242F02002D2B21A700DE0FB791A01114B1344FA7911010F4A0A441278D2B222F02002D2B21A70FB795C
:401080001A010A4B1344FA791101084A0A441278D2B242F00102D2B21A700023FB60FB6818461437BD465DF8047B70471070004080B485B000AF0346FB710123FB60FB795B
:4010C000172B1DD8FB791A01114B1344FA7911010F4A0A441278D2B222F00102D2B21A70FB791A010A4B1344FA791101084A0A441278D2B222F02002D2B21A700023FB60EC
:40110000FB6818461437BD465DF8047B704700BF1070004080B485B000AF03460A46FB711346BB710123FB60FB79172B18D8FB791A010F4B13441B78DBB223F00E03FB72DE
:40114000FB791A010A4B1344BA7902F00702D2B25200D1B2FA7A0A43D2B21A700023FB60FB6818461437BD465DF8047B704700BF1070004080B485B000AF0346FB710B4629
:40118000BB8013467B800123FB60BB8841F6FF72934202D14FF40053BB807B8841F6FF72934202D14FF400537B80FB79172B17D8FB79DB0003F1804303F5EC430433BB60B5
:4011C000BB68BA881A80FB79DB0003F1804303F5EC430633BB60BB687A881A800023FB60FB6818461437BD465DF8047B704700BF80B485B000AF03460A46FB711346BB7137
:401200000123FB60FB79172B07D8FB791A01064B1344BA795A720023FB60FB6818461437BD465DF8047B70471070004090B484B000AF0446084611461A462346FB710346F8
:40124000BB710B467B7113463B710123FB60FB79172B34D8FB79DB0003F1804303F5EC43BA7902F07F02D1B27A79D201D2B20A43D2B21A70FB79DB0003F1804303F5EC4397
:401280003A7E1201D1B23A7902F00F02D2B20A43D2B25A70FB79DB0003F1804303F5EC433A7F02F00F02D2B29A70FB79DB0003F1804303F5EC430022DA700023FB60FB681A
:4012C00018461037BD4690BC704700BF80B582B000AFFF23FB71FFF76FFE0346BB71104B1B78182B12D90F4B1B78FB710C4B1B78013BDAB20A4B1A70FB79DB0003F18043FC
:4013000003F5F0431B78DAB2064B1A70BB791846FFF756FEFB7918460837BD4680BD00BF1481FF1F1581FF1F90B484B000AF0446084611461A462346FB710346BB800B4615
:40134000BB711346FB700123FB60FB795BB2002B23DBBB8823F47F6323F00F039BB2002B1BD1FB79DB0003F1804303F5F043BB60BB68BA881A80FB79DB0003F1804303F546
:40138000F043BA799A70FB79DB0003F1804303F5F043FA78DA700023FB60FB6818461037BD4690BC704700BF80B485B000AF0346FB710B46BB8013467B800123FB60FB79E5
:4013C0005BB2002B17DBFB79DB0003F1804303F5F0430433BB60BB68BA881A80FB79DB0003F1804303F5F0430633BB60BB687A881A800023FB60FB6818461437BD465DF81B
:40140000047B70470E4B70B51E460E4C0025E41AA410A54204D056F8253098470135F8E700F0A0F8084B094C1E46E41AA4100025A54204D056F8253098470135F8E770BD27
:401440007015000070150000701500007815000010B5431E0A44914204D011F8014B03F8014FF8E710BD03460244934202D003F8011BFAE7704700000000000028020000DA
:40148000200200001802000010020000080200000802000008020000080200004081FF1F4081FF1F4081FF1F4081FF1F4081FF1F4081FF1F4081FF1F4081FF1F4081FF1FDF
:4014C0004081FF1F4081FF1F4081FF1F4081FF1F4081FF1F4081FF1F080000481000004820040048400400481800004820000048A000004820010048A001004820020048A6
:40150000A002004820030048A003004860040048700400488004004800050048800500480006004880060048000700488007004800080048800800480009004880090048A1
:40154000000A0048800A0048000B0048800B0048000C0048800C0048000D0048800D0048000E0048F8B500BFF8BC08BC9E46704755020000CD040000F8B500BFF8BC08BCEE
:401580009E46704731020000981500000881FF1F18000000383000000000000001000000FF000000807F000001000000000000000000000000000000000000000000000089
:4015C00000000000000000000000000000000000000000000000000000000000000000000000000000000000000000000000000000000000000000000000000000000000EB
:4016000000000000000000000000000000000000000000000000000000000000000000000000000000000000000000000000000000000000000000000000000000000000AA
:40164000000000000000000000000000000000000000000000000000000000000000000000000000000000000000000000000000000000000000000000000000000000006A
:40168000000000000000000000000000000000000000000000000000000000000000000000000000000000000000000000000000000000000000000000000000000000002A
:020000040003F7
:0200000480007A
:40000000020000000000000040400000000000005396000000000000010000000000000000120F00001B0000000900000040000000F800070000001B00200000009F08608E
:400040000000000000E0021F00FF0100006000000303048008780004008000200000000430050000005012001EFFFFFF00A00004180080000000000004040404100000015E
:400080004000C0004040C000C000C000C000C00000000000000000000000000000000000000000000200000000000000020000080100000400000002000C020000000001DE
:4000C000000C000000000000000000000000000002020104010100080000000000001144400200000000200018FFFFFF00A0000418008000000000000404040801000001C3
:400100004000C0004040C000C000C000C000C00000000000000000000000000000000000000000000000000100000102000000000000010002020000000200000000000272
:40014000000000000000000200000000000000000102000002000001000000000000100132060000000CE00B19FFFFFF0000F0440C00800000000000080404080001000147
:40018000000000000000C0000000400200000000000000000000000000000000000000003C0002006C0011000900506F8002030000000000143800450038104300160008FB
:4001C0000000008070000C800030004000000000000B800760741F802000002A00001440020000000015050007FF07FF4020F00508000000010000000404040411110001B7
:4002000040A8402000000000000000000000000000000000000000000000000000000000000000001F0000001F00000000000001000000010A005100010026001400C900D7
:400240000000000000000000000000000000000080001800070160000000000000004010360205000100CE000CFFFFFF62A0F0410C0000001800000004040404011100019F
:400280000000000000004002001030100010101200000000000000000000000000000000000B00000000000100000000000002000000000200000000000B04040000010056
:4002C0000000000800000000000000000000000004040001020201080000000000000054400100000000020005FFFFFF00A0000418000000000008000404080400900001DE
:400300004000C0004040C000C000C000C000C0000000000000000000000000000000000000001000080000040002000000010C000000000200000000000018011000000027
:400340000000000000000200000000000000030718030400010402000000000000000000200300000000000000FFFFFF00A0000418008000000000000804080400000001D6
:400380004000C0004040C000C000C000C000C0000000000000000000000000000000000026004900060000000201000000002000000100007F00000027005000200000004E
:4003C00004000000790106000000590000000000460000013E00070000002A0000000000600300000001200009FFFFFF00AF0F0418000000000002120404080411100001BC
:400400004000C0004040C000C000C000C000C000000000000000000000000000000000000000000000000000000000000000000000000000000000000000000F000000006D
:4004400000000000000000000000000000000000000000000000000038000072000000000301000000000000000000000301000003000000000000000000000003000000C4
:40048000000100000000000000000000000000000000000000000000000000000000000000000000000100000000000000800000000000000080000000000000000000003A
:4004C00000000000000000000000000000000000000000000000000000000000000000000000000000000000000008000000000000000000000000000000000000000000F4
:40050000000000000000000000000000008000000000000000000000000000000000000000000000000000000000000000000000000000000000000000000000000000003B
:4005400000000000000000000000000000000000000000000000000000000000000000000000000080000000000000000000000000000000000000000000000000000000FB
:400580000004000000000000000000000000000000000000000000008000000000840000000000000001000000000000000000000000000000000000000000000000000032
:4005C00000000100000000000000000000000000000000000000000001000000000000000000000000000000000000000000000000000000000000000000000000000000F9
:4006000000080000000000000000000000000001000000000000000280000000008C000000000000000100000000000400000080000000000000000000000000000000001E
:400640000000000000000000000000000000000000000000000000000000000000000000020000000000000000000000000000000000000000000000000000000000000078
:4006800000000000000000000000004080000000000000000000008200000000008C00000000000000010084000000000000000000000000000000000000000000000000E7
:4006C00000000000000000000000000000000000000000000000000000000000000000000800000001000000000000000000000000000000000000000000000000000000F1
:4007000000000000000000000000000000000000000000000000000000000000000000000000000000000000000000000000000000000000000000000000000000000000B9
:400740000000000000000000000000000000000000000040000100800088000000000000000000080004000200000000000000000000000000000000000000000000000022
:400780000000000000000000000000000000000000000000000000000000000000000000000000000000000000000000000000000000000000000000000000000000000039
:4007C00000000000000000000000000000000000000000000700070003000000000000000000000000000000000000000000000000000000000000000000000000000000E8
:40080000008A01004021100010000100002800020004008000000016048A401000290058000121000000081000008000000000200010010000000001002800400000100024
:4008400004002000000020000000000000040020000000000000200000000000000008000000000000000000000000001400102100008000402010020000000200000002AD
:400880000000200001001000000000000000000040280140280240A010100084012101000000040340000808000000000000001000000000800000000000000000000000A6
:4008C000FD00E300750000000000480085002E00460020000000400000000000000018000000000001000000080000000000000000000000000000000000000000000000E1
:400900000040000028000000000008010028000600000000000000000402020040A81000000050500010000000020000040000080010010000000001040001000020208083
:4009400000404100048000041000028000000A0000400000000000608000000000000200000000020000A00008400840000000000000080100000000000000020000000073
:400980000000400000000000000000000000000000280000000230A410108085012109400000050258000829000000000000000000000000000000000000000000000000D9
:4009C0006100E300000000000000010085001300790030000000880038000000000008000000000001000000000000000000000000000000000000000000000000000000A8
:400A0000080001000000400000208000000000010000000000002400540000000818000200208110080005050000010001000018081001408021080000800000800010063D
:400A400000110000000800000000000000000081001400000000244000000000000000000000000000000000000000000000000000000080000040000000000200000000A2
:400A800040000000000000000000000084001000008080001400009010008000000008000000000010008022000080000000000100000012000000000000000000000000E1
:400AC00015008A006000000000007100FF00F800450010000000000000000000000008000000000004000000000000000C0000000000000000000000000000000000000022
:400B00002000000010400060000000600800000800000000000080090000040100600008404000000000047D000400000000006400000054000000681000080010000080B2
:400B400004000004002000000004140800004008080000100000004000000000400024020000000000000000000000000000000000000040000000000000000200000000E5
:400B80000000000000000000100000500000000A000000000000000000000000000000000000000000000000000000000000000000000000000000000000000000000000CB
:400BC000F2006C00200000000000E2007E003600260004000000F000000000000000080000000000000040000000000000000000000000000000000000000000000000007F
:400C000000000000000000000000000000000000000000000000000000000000000000000000000000000000000000000000000000000000000000000000000000000000B4
:400C40000000000000000000000000000000000000000000000000000000000000000000000000000000400000000000000000000000000000000000000000000000000034
:400C800000000000000000000000000000004000000000000000400000000000000000000000000000000000000000000000000000000000000000000000000000000000B4
:400CC00000000000000000000000000000000000000000000000000000000000000000000000000000000000000000000000000000000000000000000000000000000000F4
:400D00000000000000000000000000000000000000000000000040000000000000000000000000000000000000000000000000000000000000000000000000000000000073
:400D40000000000000000000000000000000000000000000000000000000000000000000000000000000000000000000000000000000000000000000000000000000000073
:400D800000000000000000000000000000000000000000000000000000000000000000000000000000000000000000000000000000000000000000000000000000004000F3
:400DC00000000000000000000000000000000000000000000000000000000000000000000000000000000000000000000000000000000000000000000000000000000000F3
:400E000000000000000000000000000000000000000000000000000000000000000000000000000000000000000000000000000000000000000000000000000000000000B2
:400E40000000000000000000000000000000200000000000000000000000000000000000000000000000000000000000000000000000000000000000000000000000000052
:400E800040008040400040000000000000FFFF00FF0000000000000000000000000000000000000000000000000000000000000000000000000000000000000000000000B5
:400EC00000000000000000000000000000000000000000000000000000000000000000000000000000000000000000000000000000000000000000000000000000000000F2
:400F000000000000000000000000000000000000000000000000000000000000000000000000000000000000000000000000000000000000000000000000000000000000B1
:400F40000000000000000000000000000000000000000000000000000000000000000000000000000000000000000000000000000000000000000000000000000000000071
:400F80000000000000000000000000000000000000000000000000000000000000000000000000000000000000000000000000000000000000000000000000000000000031
:0200000490006A
:0400000000000005F7
:0200000490105A
:04000000BC90ACAF55
:0200000490303A
:020000002FF0DF
:0200000490402A
:4000000000000000000000000000000000000000000000000000000000000000000000000000000000000000000000000000000000000000000000000000000000000000C0
:400040000000000000000000000000000000000000000000000000000000000000000000000000000000000000000000000000000000000000000000000000000000000080
:400080000000000000000000000000000000000000000000000000000000000000000000000000000000000000000000000000000000000000000000000000000000000040
:4000C0000000000000000000000000000000000000000000000000000000000000000000000000000000000000000000000000000000000000000000000000000000000000
:0200000490501A
:0C00000000012E12306900002E1A605919
:00000001FF