:100000000200031200991200A979049979049960F9
:100010004A790499600C240C1200BA1200CD80E6D3
:1000200080E4240CF81200BA90FE00F0F990FE0073
:100030007401F07D05ED7AFF7BFF7CFF6009DAFE3D
:10004000DAFEDBFE1480EFE99405600C90FE00F010
:1000500090FE007401F080DBE880C52408F81200EF
:10006000BA90FE00F0F990FE007401F07DFFED7A89
:10007000FF7BFF7CFF6009DAFEDAFEDBFE1480EF17
:10008000E9240560D390FE00F0F990FE007401F0C1
:1000900080DAE8222404F8E82290FE037436F07532
:1000A0008902888CD28C75A88230B3FD7590FF20B0
:1000B000B3FDE590C394F0F590220483220000097B
:1000C000000045393600302720451C151190FE00F0
:0700D000F090FE007401F046
:00000001FF
