:03000000020030CB
:03000B00B290327E
:10003000120047120057790499604A24041200689C
:1000400012007B80EE80EC90FE037436F07589021E
:10005000888CD28C75A88230B3FD7590FF20B3FDDB
:10006000E590C394F0F5902204832200000900007B
:1000700045393600302720451C151190FE00F090C0
:10008000FE007401F0240CF812006890FE00F0F9F4
:1000900090FE007401F07DFFED7AFF7BFF7CFF6036
:1000A00009DAFEDAFEDBFE1480EFE99405600D90BC
:0F00B000FE00F0F990FE007401F080DAE880861F
:00000001FF
