:03000000020100FA
:03000300020100F7
:03000B00020100EF
:03001300020100E7
:03001B00020100DF
:03002300020100D7
:03002B00020100CF
:10010000C2AF12013F1202A40A0D57656C636F6DF6
:100110006520746F20362E313135210A0D4D494E40
:100120004D4F4E3E200075812FC2AFC2001202A477
:100130000D0A2A00C298120267FA02028380E7754C
:100140008920758841758DFD7598502202270227F8
:10015000022702270198022702270182022702278D
:100160000227022702270227022702270227022747
:1001700001EA022702270227022702040227022798
:100180000227120255FF1202C3120255C0E01202EA
:10019000C31202B8EFC0E0221202B8743E120292FB
:1001A00012029AB43AFA1201E06021F81201E0D288
:1001B000E7F5831201E0F5821201E01201E0F0A3FD
:1001C000D8F91201E0742E12029280D41201E012CA
:1001D00001E01201E01201E0742E12029202013DD0
:1001E0001202552000012202023D120255F583122F
:1001F00002C3120255F5821202C31202B8E01202C3
:10020000C302013D120255F5831202C3120255F5D5
:10021000821202C31202551202C31202551202C305
:10022000F01202B802013D1202A40D0A20626164BC
:1002300020636F6D6D616E64200002013D1202A4A7
:100240000D0A2062616420706172616D657465726F
:10025000200002013D12029A1202EAC4F5F01202D5
:100260009A1202EA45F02212029AC2E5120292C3E1
:100270009440500312023DC0E0941B400312023D23
:10028000D0E02290014CEA230493C0E0EA2393C01B
:10029000E022C299F5993099FD223098FDE59954F4
:1002A0007FC29822D083D082E493B40002800612E9
:1002B0000292A380F3740173740A120292740D12F5
:1002C000029222C0E01202D2120292EA120292D0EC
:1002D000E022FA540F24F650022407243ACAC454E8
:1002E0000F24F650022407243A22C20024D05017CB
:1002F000C324F64003240A22C2E5C324F95008C3EC
:0F03000024FA4003540F22D20002013D020000F4
:00000001FF
