:400000000000002011000000810D0000810D000080B500AF054A054B1B6843F020031360034A044B1B68136000F0AEFEE8460040BC760040FA46004008000223000008766B
:400040000800032300001076080004230000287608000523000030760500062300002070050007230000307005000823000060700500FE230000707010000A220000005109
:4000800040000B220000305110000C220000C0511000FE220000F05180030E220000000000040F2200000004800110220000000C800011220000000E800012220000800FE3
:4000C0000004132200000014800014220000004100021522000000438000162200000046800017220000004700021822000000488000FE220000004D07001A230000085233
:4001000007001B23000010520C001C230000004F20001D23000070642000FE230000706508001F230000005180002023000000088000212300008008800022230000000AB3
:40014000800023230000800A800024230000800E80002523000000188000262300008018800027230000001A800028230000801A100029230000105010002A2300000050E7
:4001800080002B230000804D80002C230000004C80002D230000804C80002E230000804780002F230000804680003023000000458000312300008045800032230000001B1C
:4001C000800033230000801B8000342300000019800035230000801980003623000000098000372300008009800038230000000B800039230000800B80003A230000800D31
:4002000080003B230000800380003C230000000F80003D230000004280003E230000804280003F230000804180004023000000408000FE2300008040010000000100000081
:40024000010000000048014001000000004800400100000000200140010000000020004010B5054C237833B9044B13B10448AFF300800123237010BD3081FF1F0000000037
:4002800054200000084B10B51BB108480849AFF300800848036803B910BD074B002BFBD0BDE81040184700BF00000000542000003481FF1F0881FF1F0000000080B582B02F
:4002C00000AF01F07FF80346C3F549730133FB80FB8803F007039BB2002B39D1FB88B3F5407F10D21C4B1B78DB0003F1804303F5F0430433FA88D20892B2D20117490A449E
:4003000092B21A8024E0FB88B3F5407F20D1144B1B68002B1CD0134B1B78184601F004FB0F4B1B68002B0DD00C4A0F4B11461A464FF44053084611461A4601F077FE084BE8
:4003400000221A60074B1B781846012101F0A6FA0837BD4680BD00BF6981FF1F000000201C81FF1F6881FF1F6C81FF1F80B584B000AF0023FB6010E001F000FD0346002BD0
:400380000BD001F0D9FC0346FB723A1DFB681344FA7A1A70FB680133FB60FB68022BEBDD3B1D184600F03EFC0A4B1A780A4B1B781344DAB2074B1A70084B1A78084B1B7854
:4003C0001344DAB2054B1A70064B1B781037BD4680BD00BF0C81FF1F4C81FF1F0D81FF1F4D81FF1F034F004080B400AF054B01221A6000BF034B1B68002BFBD1BD465DF8A7
:40040000047B70471C81FF1F80B500AF01F09AFB03461A46314B1A700120002141F6FF724FF4804301F088F803461A462C4B1A702A4B1A78294B1B78104680211A4605231A
:4004400001F0AEFB254B1B781846002146F27B5201F0E6FB224B1A78204B1B781046194601F002FB1E4B1B781846012101F016FA00F0D8FF00F042FF01F058F901F0DEF86B
:40048000184801F08DF8184801F042FD01F006FC01F0F4FB01F0FAFC62B6012001F05CFD002001F0A1F800F025F8104A104B11461A464FF44053084611461A4601F0B6FDF7
:4004C00000F02CF800F09AF800F0C4F900F0FEFA00F074FBFFF788FFE7E700BF6981FF1F6881FF1FBD0200006D0300006C81FF1F7020000080B500AF064A074B11461A4652
:400500004FF44053084611461A4601F08FFDFFF76BFF80BD6C81FF1F7020000080B483B000AF00237B602CE0334A7B68DB0113442B33FF221A70304A7B68DB0113442C3380
:40054000FF221A702C4A7B68DB0113442D33FF221A70294A7B68DB0113445333FF221A70254A7B68DB0113445433FF221A70224A7B68DB0113445533FF221A707B680133FC
:400580007B607B685F2BCFDD00237B602CE01A4A7B68134403F57863FF221A70164A7B68134403F58053FF221A70134A7B68134403F58453FF221A700F4A7B68134403F575
:4005C000FC53FF221A700C4A7B68134403F50053FF221A70084A7B68134403F50253FF221A707B6801337B607B687F2BCFDD0C37BD465DF8047B70476C81FF1F80B483B089
:4006000000AF8F4B1B78002B1ED100237B6017E08C4A7B6813441B78582B0ED0894A7B6813441B784F2B08D0864A7B68134458221A70834B01221A7005E07B6801337B6039
:400640007B68082BE4DDF5E07D4B1B78012B40F0F1807D4B1B78012B40F0EC807B4B1B782C2B13D87A4B1B78202B0FD8754B1B78582B0AD0734B1B784F2B06D0714B4F22E0
:400680001A706F4B00221A70BEE0BDE06F4B1B782C2B17D96D4B1B78542B13D86C4B1B78202B0FD8674B5B78582B0AD0654B5B784F2B06D0634B4F225A70614B00221A7054
:4006C000A2E0A1E0614B1B78542B13D9604B1B78202B0FD85B4B9B78582B0AD0594B9B784F2B06D0574B4F229A70554B00221A708AE089E0554B1B782C2B17D8544B1B78D9
:40070000202B13D9524B1B78402B0FD84D4BDB78582B0AD04B4BDB784F2B06D0494B4F22DA70474B00221A706EE06DE0474B1B782C2B1BD9454B1B78542B17D8444B1B7834
:40074000202B13D9424B1B78402B0FD83D4B1B79582B0AD03B4B1B794F2B06D0394B4F221A71374B00221A704EE04DE0374B1B78542B17D9364B1B78202B13D9344B1B7803
:40078000402B0FD82F4B5B79582B0AD02D4B5B794F2B06D02B4B4F225A71294B00221A7032E031E0294B1B782C2B13D8284B1B783F2B0FD8234B9B79582B0AD0214B9B79AC
:4007C0004F2B06D01F4B4F229A711D4B00221A701AE019E01D4B1B782C2B15D91B4B1B78542B11D81A4B1B783F2B0DD8154BDB79582B09D0134BDB794F2B05D0114B4F22F6
:40080000DA710F4B00221A70104B1B78542B11D90F4B1B783F2B0DD80A4B1B7A582B09D0084B1B7A4F2B05D0064B4F221A72044B00221A700C37BD465DF8047B704700BF7E
:400840004F81FF1F1081FF1F4E81FF1F0C81FF1F0D81FF1F80B400AF994B1B78582B0ED1974B5B78582B0AD1954B9B78582B06D1944B02221A70944B00221A701BE1904B8C
:40088000DB78582B0ED18E4B1B79582B0AD18C4B5B79582B06D18B4B02221A708A4B00221A7008E1864B9B79582B0ED1844BDB79582B0AD1824B1B7A582B06D1814B022251
:4008C0001A70814B00221A70F5E07D4B1B78582B0ED17B4BDB78582B0AD1794B9B79582B06D1784B02221A70774B00221A70E2E0734B5B78582B0ED1714B1B79582B0AD179
:400900006F4BDB79582B06D16E4B02221A706E4B00221A70CFE06A4B9B78582B0ED1684B5B79582B0AD1664B1B7A582B06D1654B02221A70644B00221A70BCE0604B1B7892
:40094000582B0ED15E4B1B79582B0AD15C4B1B7A582B06D15B4B02221A705B4B00221A70A9E0574B9B78582B0ED1554B1B79582B0AD1534B9B79582B06D1524B02221A70B5
:40098000514B00221A7096E04D4B1B784F2B0ED14B4B5B784F2B0AD1494B9B784F2B06D1484B02221A70484B01221A7083E0444BDB784F2B0ED1424B1B794F2B0AD1404B1F
:4009C0005B794F2B06D13F4B02221A703E4B01221A7070E03A4B9B794F2B0ED1384BDB794F2B0AD1364B1B7A4F2B06D1354B02221A70354B01221A705DE0314B1B784F2B6E
:400A00000ED12F4BDB784F2B0AD12D4B9B794F2B06D12C4B02221A702B4B01221A704AE0274B5B784F2B0ED1254B1B794F2B0AD1234BDB794F2B06D1224B02221A70224BD4
:400A400001221A7037E01E4B9B784F2B0ED11C4B5B794F2B0AD11A4B1B7A4F2B06D1194B02221A70184B01221A7024E0144B1B784F2B0ED1124B1B794F2B0AD1104B1B7A5B
:400A80004F2B06D10F4B02221A700F4B01221A7011E00B4B9B784F2B0DD1094B1B794F2B09D1074B9B794F2B05D1064B02221A70054B01221A70BD465DF8047B704700BFE9
:400AC0001081FF1F4F81FF1F5081FF1F80B485B000AF0023FB6059E0304AFB6813441B78582B25D10023BB601EE02D4AFB6813441B785AB22B49BB680B441B785BB21A446B
:400B00002949FB680B441B7859B22848BB6803441B785BB20B442649D20113440B44FF221A70BB680133BB60BB68082BDDDD2AE01A4AFB6813441B784F2B24D100237B60ED
:400B40001EE0174AFB6813441B785AB219497B680B441B785BB21A441349FB680B441B7859B215487B6803441B785BB20B441049D20113440B44FF221A707B6801337B609A
:400B80007B68082BDDDDFB680133FB60FB68082BA2DD1437BD465DF8047B70471081FF1F642000000453000058200000F85200006C81FF1F185300001053000080B483B0F9
:400BC00000AF00237B601AE0114B1B781946114A7B6813441B785BB2CA180F4B1B7818460E497B680B441B785BB203440C49D20113440B44FF221A707B6801337B607B68E0
:400C0000072BE1DD0C37BD465DF8047B704700BF0D81FF1F285300000C81FF1F205300006C81FF1F80B485B000AF78600023FB6097E0FB687A6813441B78413B162B00F221
:400C40008D8001A252F823F0A50C0000AD0C0000B50C0000BD0C0000C50C0000CD0C0000D50C0000DD0C0000E50C0000ED0C0000F50C0000FD0C0000050D00000D0D0000DF
:400C8000150D00001D0D0000250D00002D0D0000350D00003D0D0000450D00004D0D0000550D0000334B02221A7057E0314B02221A7053E02F4B01221A704FE02D4B012231
:400CC0001A704BE02B4B00221A7047E0294BFF221A7043E0274BFF221A703FE0254BFE221A703BE0234BFE221A7037E0224B02221A7033E0204B02221A702FE01E4B012232
:400D00001A702BE01C4B01221A7027E01A4B00221A7023E0184BFF221A701FE0164BFF221A701BE0144BFE221A7017E0124BFE221A7013E0114B01221A700FE00F4B01226C
:400D40001A700BE00D4B01221A7007E00B4B01221A7003E0094B00221A7000BFFB680133FB60FB68022B7FF764AF1437BD465DF8047B70474C81FF1F4D81FF1F4E81FF1FC5
:400D800080B400AFFEE700BF80B586B000AF214B7B61214B3B611F4B7B611F4B3B612FE03B691B68FB603B695B68BB603B699B683B6000237B600AE0BB681A1DBA60FA68E3
:400DC000111DF96012681A607B6804337B607A683B689A42F0D13B69DB683B6000237B6007E0BB681A1DBA6000221A607B6804337B607A683B689A42F3D13B6910333B614D
:400E00007B695A1E7A61002BCAD101F0E9F8FFF7FBFAFEE7010000005454000080B582B000AF184B184A1A60184A184B1B6843F40073136000237B600FE07B68032B04D8D6
:400E4000134A7B6852F8233000E0124B12497A6841F822307B6801337B607B682F2BECD90E4B1B78DAB20E4B1A700E4B0A4A1A6000F0DAF900F0E4FC0B4B00221A60083756
:400E8000BD4680BD0CED00E00004FA0514ED00E000000000810D00000080FF1FBC7600400481FF1F08ED00E00081FF1F80B582B000AF78603960786800213A6801F0C1F8AC
:400EC0000837BD4680BD00BF80B584B000AFF860B9607A60F868B9687A6801F0A7F81037BD4680BD80B483B000AF0346FB71FEE780B582B000AF454B00221A60444B102224
:400F00001A70444B01221A70434B00221A70434B4FF400721A80424B01221A70414B03221A70414B414A92B21A80414B47F608021A80404B00221A803F4B4FF480421A808D
:400F40003E4B09221A703E4B0D221A703D4B19221A703D4B1E221A70BFF35F8F3B4B01221A70BFF35F8F00BF2C4B1B889BB2002BFAD100237B600DE07B68DA00344B134445
:400F80001946344A7B6852F823309BB20B807B6801337B607B683F2BEED9BFF35F8F2B4B01221A70BFF35F8F00BF2B4B1B78DBB203F00103002BF8D100BF284B1B78DBB201
:400FC00003F00103002BF8D100BF254B1B78DBB203F00103002BF8D100BF224B1B78DBB203F00103002BF8D100BF1F4B1B78DBB203F00103002BF8D11C484FF090410622C5
:40100000FFF762FF0837BD4680BD00BF5881FF1F007600401070004019700040007800400278004003780040047800403800000006780040047600400676004029700040B7
:40104000397000406970004079700040147000400C7800403053000018700040287000403870004068700040787000401051014080B582B000AF494B07221A80484B182296
:401080001A70484B40F24F321A80474B18221A70464B40F28F121A80454B19221A70454B02221A704FF0402308221A70424B43F213321A80414B05221A70404B1B7843F258
:4010C000C8237B6006E04FF4F07000F0A9FB7B68013B7B607B68002B06D0384B1B78DBB2DBB25BB2002BEEDB7B68002B02D10120FFF7F8FE4FF0402348221A70304B2022BD
:401100001A70304B40F626521A802F4B41F251221A800023FB7019237B6014E0FB785B00DAB22A4B1B78DBB203F00103DBB21343DBB203F00303FB704FF4F07000F070FB57
:401140007B68013B7B607B68002B02D0FB78032BE4D17B68002B02D10320FFF7C3FE1C4B4FF480721A801A4B07221A70194B00221A70194B48221A70154B00221A70174B60
:4011800002221A70164A164B1B78DBB243F00703DBB213700837BD4680BD00BF80400040824000408440004086400040884000408A4000400043004012420040104200404E
:4011C0000042004022420040204200402542004004400040064000400840004001400040A243004080B483B000AF0B4B1B78FB710A4AFB7903F00703DBB21370084AFB7942
:401200001B09DBB21370074B44221A700C37BD465DF8047B704700BFCF0100496E5800406F5800407658004080B500AF72B6264A254B1B78DBB243F02403DBB21370FFF708
:4012400057FE22480421FFF731FE214A204B1B78DBB243F00203DBB213701E4A1D4B1B78DBB243F00203DBB213701B4A1A4B1B78DBB243F04003DBB21370184A174B1B7828
:40128000DBB243F01003DBB21370154815490A22FFF71AFE144815490822FFF715FE144A134B1B78DBB243F00803DBB21370114B01221A70FFF7DCFEFFF794FF0E48064938
:4012C0000E22FFF701FE80BDE8460040007600400350014013500140A0430040C2430040105100408C10004822510040981000482243004000480040B043004080B500AF5C
:40130000054B1B78002B04D100F008F8024B01221A7000F037F880BD6081FF1F80B582B000AF154B1B78DBB223F03F03FB71124AFB7943F02103DBB21370104A0F4B1B78B0
:40134000DBB243F00103DBB213700D4A0C4B1B78DBB243F00103DBB2137040F2253000F021F840F2253000F03DF8262000F04AF80837BD4680BD00BF7A6500409A65004034
:401380009B65004080B400AF054A054B1B78DBB263F07F03DBB21370BD465DF8047B70477A65004080B483B000AF0346FB80044AFB8813800C37BD465DF8047B704700BFEB
:4013C000146A004080B400AF044B1B88044B1B889BB21846BD465DF8047B7047346A0040B46A004080B483B000AF0346FB80044AFB8813800C37BD465DF8047B704700BF25
:40140000946A004080B483B000AF0346FB80044AFB8813800C37BD465DF8047B704700BF546A004080B500AF054B1B78002B04D100F008F8024B01221A7000F02DF880BD9F
:401440006181FF1F80B582B000AF114B1B78DBB223F03F03FB710E4AFB7943F00A03DBB213700C4A0B4B1B78DBB243F00103DBB21370A72000F020F8A72000F02DF801201E
:4014800000F03AF8282000F047F80837BD4680BD7A6400409B64004080B400AF054A054B1B78DBB263F07F03DBB21370BD465DF8047B70477A64004080B483B000AF034625
:4014C000FB71044AFB7913700C37BD465DF8047B704700BF0B64004080B483B000AF0346FB71044AFB7913700C37BD465DF8047B704700BF4B64004080B483B000AF03460E
:40150000FB71044AFB7913700C37BD465DF8047B704700BF2B64004080B483B000AF0346FB71044AFB7913700C37BD465DF8047B704700BF3B64004090B585B002AF0446A7
:40154000084611461A462346FB710346BB710B46BB8013467B80114B00221A700F4B1878F979BA790023009300230193002300F099FA0A4B1978BA887B88084611461A4662
:4015800000F034FA054B1B781846002100F0FEF9024B1B7818460C37BD4690BD2081FF1F80B582B000AF786000F03CF8786800F009F8072000F018F800F028F80837BD46D8
:4015C00080BD00BF80B485B000AF7860054B1B68FB60FB6840337A681A601437BD465DF8047B704708ED00E080B483B000AF0346FB71054AFB795B01DBB213700C37BD46B1
:401600005DF8047B704700BF00E400E080B400AF034B01221A60BD465DF8047B704700BF00E100E080B400AF034B01221A60BD465DF8047B704700BF80E100E080B500AF80
:40164000054B1B78002B04D100F008F8024B01221A7000F02BF880BD6281FF1F80B582B000AF104B1B78DBB223F03F03FB710D4AFB7943F00803DBB213700B4A0A4B1B78A4
:40168000DBB243F00103DBB21370062000F01EF8062000F02BF8062000F038F80837BD4680BD00BF786500409865004080B400AF054A054B1B78DBB263F07F03DBB213708C
:4016C000BD465DF8047B70477865004080B483B000AF0346FB71044AFB7913700C37BD465DF8047B704700BF0865004080B483B000AF0346FB71044AFB7913700C37BD469C
:401700005DF8047B704700BF4865004080B483B000AF0346FB71044AFB7913700C37BD465DF8047B704700BF2865004080B500AF054B1B78002B04D100F008F8024B0122DE
:401740001A7000F02BF880BD6381FF1F80B582B000AF104B1B78DBB223F03F03FB710D4AFB7943F00803DBB213700B4A0A4B1B78DBB243F00103DBB21370112000F01EF8DA
:40178000112000F02BF8112000F038F80837BD4680BD00BF7B6400409864004080B400AF054A054B1B78DBB263F07F03DBB21370BD465DF8047B70477B64004080B483B060
:4017C00000AF0346FB71044AFB7913700C37BD465DF8047B704700BF0864004080B483B000AF0346FB71044AFB7913700C37BD465DF8047B704700BF4864004080B483B011
:4018000000AF0346FB71044AFB7913700C37BD465DF8047B704700BF28640040000000000230800803D000BF01380046FCD17047EFF3108072B6704780F31088704700BF82
:4018400080B483B000AF134B7F221A70124B80221A707F23FB710CE0FB79DB0003F1804303F5F043FA79013AD2B21A70FB79013BFB71FB79002BEFD1FB79DB0003F18043D8
:4018800003F5F04300221A700C37BD465DF8047B704700BF2581FF1F2481FF1F80B485B000AF03460A46FB711346BB710123FB60FB79172B2FD8BB79002B0ED0FB791A0190
:4018C000184B1344FA791101164A0A441278D2B242F02002D2B21A700DE0FB791A01114B1344FA7911010F4A0A441278D2B222F02002D2B21A70FB791A010A4B1344FA7932
:401900001101084A0A441278D2B242F00102D2B21A700023FB60FB6818461437BD465DF8047B70471070004080B485B000AF0346FB710123FB60FB79172B1DD8FB791A0146
:40194000114B1344FA7911010F4A0A441278D2B222F00102D2B21A70FB791A010A4B1344FA791101084A0A441278D2B222F02002D2B21A700023FB60FB6818461437BD461A
:401980005DF8047B704700BF1070004080B485B000AF03460A46FB711346BB710123FB60FB79172B18D8FB791A010F4B13441B78DBB223F00E03FB72FB791A010A4B13442A
:4019C000BA7902F00702D2B25200D1B2FA7A0A43D2B21A700023FB60FB6818461437BD465DF8047B704700BF1070004080B485B000AF0346FB710B46BB8013467B80012329
:401A0000FB60BB8841F6FF72934202D14FF40053BB807B8841F6FF72934202D14FF400537B80FB79172B17D8FB79DB0003F1804303F5EC430433BB60BB68BA881A80FB796C
:401A4000DB0003F1804303F5EC430633BB60BB687A881A800023FB60FB6818461437BD465DF8047B704700BF80B485B000AF03460A46FB711346BB710123FB60FB79172BEC
:401A800007D8FB791A01064B1344BA795A720023FB60FB6818461437BD465DF8047B70471070004090B484B000AF0446084611461A462346FB710346BB710B467B711346E3
:401AC0003B710123FB60FB79172B34D8FB79DB0003F1804303F5EC43BA7902F07F02D1B27A79D201D2B20A43D2B21A70FB79DB0003F1804303F5EC433A7E1201D1B23A79D0
:401B000002F00F02D2B20A43D2B25A70FB79DB0003F1804303F5EC433A7F02F00F02D2B29A70FB79DB0003F1804303F5EC430022DA700023FB60FB6818461037BD4690BC9E
:401B4000704700BF80B582B000AFFF23FB71FFF76FFE0346BB71104B1B78182B12D90F4B1B78FB710C4B1B78013BDAB20A4B1A70FB79DB0003F1804303F5F0431B78DAB21D
:401B8000064B1A70BB791846FFF756FEFB7918460837BD4680BD00BF2481FF1F2581FF1F90B484B000AF0446084611461A462346FB710346BB800B46BB711346FB700123A3
:401BC000FB60FB795BB2002B23DBBB8823F47F6323F00F039BB2002B1BD1FB79DB0003F1804303F5F043BB60BB68BA881A80FB79DB0003F1804303F5F043BA799A70FB79EE
:401C0000DB0003F1804303F5F043FA78DA700023FB60FB6818461037BD4690BC704700BF80B485B000AF0346FB710B46BB8013467B800123FB60FB795BB2002B17DBFB79A2
:401C4000DB0003F1804303F5F0430433BB60BB68BA881A80FB79DB0003F1804303F5F0430633BB60BB687A881A800023FB60FB6818461437BD465DF8047B704780B500AF16
:401C8000054B1B78002B04D100F008F8024B01221A7000F023F880BD6481FF1F80B400AF094B72221A70094B20221A70084B06221A70084B47221A70074B00221A70BD464B
:401CC0005DF8047B704700BF896500408B65004029650040396500408964004080B582B000AFFFF7A5FD0346FB71104A0F4B1B78DBB243F02003DBB213700D4A0C4B1B7885
:401D0000DBB243F01003DBB213700A4A094B1B78DBB243F01003DBB2137000F047F9FB791846FFF789FD0837BD4680BD996500409B6500409964004080B483B000AF0023B1
:401D4000FB710C4B1B78BB71BB7903F02003002B09D0094B1B78FB71BB7903F01E03002B01D00023FB71FB7918460C37BD465DF8047B70476B6500404964004080B483B066
:401D800000AF094B1B78DBB203F02003002B01D0012300E00023FB71FB7918460C37BD465DF8047B704700BF6B65004080B500AF204A204B1B78DBB203F00103DBB2137009
:401DC0001D4A1D4B1B78DBB223F00303DBB213701A4A1A4B1B78DBB223F03003DBB21370164A164B1B78DBB243F03003DBB21370124A124B1B78DBB223F00F03DBB2137027
:401E00000E4A0E4B1B78DBB243F00F03DBB213700B4A0B4B1B78DBB243F00103DBB21370FE2000F053F8FE2000F062F8082000F03DF880BD004F0040024F00400B4F004065
:401E4000014F004080B400AF0D4A0D4B1B78DBB243F00103DBB213700A4A0A4B1B78DBB243F00103DBB21370074A074B1B78DBB243F00103DBB21370BD465DF8047B704731
:401E8000A3430040B3430040004F004080B500AF054B1B78002B04D1FFF788FF024B01221A70FFF7CFFF80BD6681FF1F80B483B000AF0346FB71044AFB7913700C37BD469D
:401EC0005DF8047B704700BF034F004080B485B000AF0346FB71FB79FB81044AFB8913801437BD465DF8047B704700BF044F004080B483B000AF0346FB71044BFA7992B2E8
:401F00001A800C37BD465DF8047B7047064F004080B582B000AF786000F03CF8786800F009F8072000F018F800F028F80837BD4680BD00BF80B485B000AF7860054B1B6886
:401F4000FB60FB6884337A681A601437BD465DF8047B704708ED00E080B483B000AF0346FB71054AFB795B01DBB213700C37BD465DF8047B704700BF11E400E080B400AFA0
:401F8000034B4FF400321A60BD465DF8047B704700E100E080B400AF034B4FF400321A60BD465DF8047B704780E100E080B400AF094A094B1B78DBB243F00203DBB21370B4
:401FC000064A064B1B78DBB243F00203DBB21370BD465DF8047B7047A2430040B24300400E4B70B51E460E4C0025E41AA410A54204D056F8253098470135F8E703F018FA86
:40200000084B094C1E46E41AA4100025A54204D056F8253098470135F8E770BD3C5400003C5400003C5400004454000010B5431E0A44914204D011F8014B03F8014FF8E75C
:4020400010BD03460244934202D003F8011BFAE7704700000000000018406818406818406800000010101034343454545400000000000000000000000000000000000000A6
:402080000000000000000000000000000000000000000000000000000000000000000000000000000000000000000000000000000000000000000000000000000000000020
:4020C00000000000000000000000000000000000000000000000000000000000000000000000000000000000000000000000000000000000000000000000000000000000E0
:40210000000000000000000000000000000000000000000000000000000000000000000000000000000000000000000000000000000000000000000000000000000000009F
:40214000000000000000000000000000000000000000000000000000000000000000000000000000000000000000000000000000000000000000000000000000000000005F
:40504000000000000000000000000000000000000000000000000000000000000000000000000000000000000000000000000000141516171819151A151A151A1C1D1E20A5
:405080002125262728292D2E2F3031353637383915161718191E1F22242A2C32343A151E2425262728292A2D2E2F353637151E2430313839151E242A2C32343A14151617E6
:4050C0001C1D1E1F2025262728292D2E2F30313536373839141516171819151A262E4E151A262E4E151A1C1D2021252627282D2E2F3035363738393C3D3F404D4E4F505599
:405100005657585915161718191D21262E343A3D3E414E545A151A1D21262E343A3D414E545A151A1D21262E343A3D414E545A151A1D202126292E31343A3D414E51545A20
:405140001415161718191E1F212227282F3035363738393C3D3E4041424F5055565758591516171819141A1E36141E36141D1E1F20252627282C2D2E303135363738151629
:405180001718191E292E2F32361A1E25262728292E361A1E24292E36141A1E2124292E363915161718191F20252627282A2C2D2E2F30373821212121212122222323242499
:4051C000242424242424242424242424242424242424242425252525252525252525252525252626262626262626262626262626262727272727272728282828282828284E
:405200002929292929292929292929292929292929292929292929292E2E2E2E2E2E2F2F2F2F2F30303030303131313131313131313131313131313131313131313131310F
:405240003131313131313131323232323232323232323232323232323233333333333333333333333333343434343434343434343434343535353535353535353535353568
:405280003535353536363636363636363636363636363636363636363636363636363636363636363B3B3B3B3B3C3C3C3C3D3D3D3E3E3E3E3E3E3E3E3E3E3E3E3E3E3E3EAC
:4052C0003E3E3F3F3F3F3F3F3F3F3F3F3F404040404040404040414141414141424242424242424242434343434343434343434343434343434343430001FF01FF02FE026A
:40530000FE000000000101FFFF0202FEFE0000000001020100FFFEFFFEFF0001020100FF01020000FFFE0000000001020000FFFE5802000050020000480200004002000037
:40534000380200003802000038020000380200005881FF1F5881FF1F5881FF1F5881FF1F5881FF1F5881FF1F5881FF1F5881FF1F5881FF1F5881FF1F5881FF1F5881FF1FB1
:405380005881FF1F5881FF1F5881FF1F5881FF1F080000481000004820000048AC040048CC040048180000482C000048AC0000482C010048AC0100482C020048AC02004853
:4053C0002C030048AC0300482C040048EC040048FC0400480C0500488C0500480C0600488C0600480C0700488C0700480C0800488C0800480C0900488C0900480C0A0048DB
:405400008C0A00480C0B00488C0B00480C0C00488C0C00480C0D00488C0D00480C0E00488C0E00480C0F00488C0F00480C100048F8B500BFF8BC08BC9E46704785020000DA
:405440001D0E0000F8B500BFF8BC08BC9E46704761020000685400000881FF1F28000000403000000000000000000000403005002D2D2D2D2D2D2D2D2D0000000100000019
:40548000FF000000807F00000100000000000000000000000000000000000000000000000000000000000000000000000000000000000000000000000000000000000000ED
:4054C00000000000000000000000000000000000000000000000000000000000000000000000000000000000000000000000000000000000000000000000000000000000AC
:40550000000000000000000000000000000000000000000000000000000000000000000000000000000000000000000000000000000000000000000000000000000000006B
:40554000000000000000000000000000000000000000000000000000000000000000000000000000000000000000000000000000000000000000000000000000000000002B
:4055800000000000000000000000000000000000000000000000000000000000000000000000000000000000000000000000000000000000000000000000000000000000EB
:020000040003F7
:0200000480007A
:400000000200000000000000004000000000000095330000000000000100000000000000002000000000000000004B00000000010000000000000000000000000007000042
:400040000000010200000000000000040000000800000000000000000007000000080002000101040000000000000054100500000000020024FFFFFF00A000041800000012
:400080000000080004040404009000014000C0004040C000C000C000C000C0000000000000000000000000000000000013020429000008002001C02213040C008000200047
:4000C00003071400000700000A001400E00000000000150040002010E00000000F04E0030008103000002200000040402406030001C00E0006FFFFFF62A0F0410C0000005A
:400100000100000004040404111100010000000000004002001030100010101200000000000000000000000000000000002C00430900D0080000000C0C7171061000AC00BB
:400140000080001300000300DC71220E14000000000020001000400000000000E00000301FC0000F0028028000000004530400000000EB0C1CFFFFFF0000F0440C00800015
:40018000000000000404040411010001000000000000C00000004002000000000000000000000000000000000000000000000F0400080000000000000002000000001007E6
:4001C000000000000000000000000202000000000000010000010000000008010803100803000404000000000000000410040000001002502EFFFFFF00A0000418008000E1
:400200000000000004040404000000014000C0004040C000C000C000C000C0000000000000000000000000000000000000000000000000000000000000000000000000006D
:40024000000000000000000000000000000000000000000000000000000000000000000000000000000200000000000100000000000000000000000000000000000000007B
:400280000000000000040000000000010000000000000000000000000000000000000000000000000000000000000000000000000000000000000000000000000002010135
:4002C0000000000000000000000000000000020000000000000000020002000000000201010200000000000000000010300500000000020006FFFFFF00A00004180080006C
:4003000000000000040A0A0A000000014000C0004040C000C000C000C000C00000000000000000000000000000000000F3000C0000304000030100004C70A30F4F02900098
:400340000C030000FF7F0000422000000800000B04100000014F00300078B3078C4000380F047C030020A20000000001060000000000000400FF07FF4020F00508000000F0
:4003800000000213040404041111000140A84020000000000000000000000000000000000000000000000000000000000000000000000100000102000000020000000100A6
:4003C0000000000000000000000000000000000000000000000000000000000000000001010002000000000000005004200300000000000000FFFFFF00A000041800800049
:400400000000000004040A0A000000014000C0004040C000C000C000C000C0000000000000000000000000000000000000001902000010000000000000060800000006041C
:400440000000000100000408000001001000000000000000080000000006000004011804020201080000000000000014200300000001200009FFFFFF00AF0F0418000000EA
:40048000180000000A040A04001000014000C0004040C000C000C000C000C000000000000000000000000000000000000000000000000000000000000000000000000000B7
:4004C00000000000000F0000000000000000000000000000000000000000000000000000000000000072003800000000030000000000000000000000030000000301000039
:4005000000000000000000000301000000080000800000000000000100000000000000000000000000000000800800000000000000000001000000000000000000000000A5
:4005400000800000000000000000000000000000000000000000000000000000000000000000000000000000000000000100000000000000000008000000000000000000F2
:4005800000000000000000000000000000000000000000000000000000800000000000000000000000000000000000000000000000000000000000000000000000000000BB
:4005C00000000000000000000000000000000000000000000000000000000000000000000000000000000000000000000400000000000000000000000000000000000000F7
:400600000000000000000000000000000100000000000000000000000000000004000000010000000000000080080000000000000000000100000000000800000000000023
:400640000000000000000000000000000000010000000000000000000000000000000000000000000200000000000000000000000000000000000000000000000000000077
:4006800000000000000000000000000000000000000000000000004020000000040000000100004000000000800800000000000020080001000000000000000000000000E4
:4006C00004000000000000000000000000000000000000000000000000000000000000000000000000000000000000000400000008000000000000000200000000000000E8
:4007000000000000000000000000000000000001000000000000000000000000000000000100004200000000800800000000000020080001000000000000000000000000C4
:400740000000000000000000000000000000000000000000000000000000000000000000000000000000000000000000000000000000000000000000000000000000000079
:400780000000000000000000000000000000000000000000000000000000000000000000000000000000000000000000000000000000000000000000000000000000000039
:4007C0000000000000000000000000000000000000000000000000000000000020000001000800010000000000080000010000408000000000000000000000000000000006
:4008000000000000000000000000000000000000000000000000000000000000000000000000000000000000000000000000000000000000000000000000000000000000B8
:400840000000000000000000000000000000000000000000000000000000000000000000070007000300000000000000000000000000000000000000000000000000000067
:40088000000000000000000000000000A800000040040040000000800000004A000000000000402000A00000460D00000000040001002600000000000000000100000000C3
:4008C00000000218000000204100000004002800000028000000000000000008000000000000200000000000000000020000000000A00000000000000000611000000040AE
:4009000000000009000000200000002000000400000020000100000000000000000000A200004900000040620001000154000021000810000000000000000000000000002D
:40094000800000000000000000000000B700D8005000000000001000E000940066000000000080003000000000004200000000000600000000000000000000000000000036
:4009800000000000000000000000000004810008000000001000900100004000800001580000000140E08400000008042804010200100020046009000000000591100008C5
:4009C0000001000048000010000000000000000000080000000408040000008200000400000040400000020000000000000000000000000000400014000000008400180886
:400A000000000040000000000000002000100000000000000401000000000000040000F300480D04011000008005041440000828000014000000000000000032000000008D
:400A40000000000000000000000000000F001F001F00000000003F008F000E00400014000000010000000000000040000100000000000000020000000000000000000000B5
:400A8000000000000000000000000000480080080000000041081000000020008000021400000000C09000080200000005020050001040A000000008000001010000001498
:400AC0000001048000400011020000000106040000000040401000000000008000000040004002400080180280000000000000000100000100000000000000000000000025
:400B000000000000000000000000000080000214000000000000400000100000000000228000000440000040000406000408882000400000000000000000000000000000AB
:400B40001000000000000000000000000F002D000F00000000009400D6008D001F00140000001F0010000000000000000000000000000000000000000000000000000000C1
:400B80000000000000000000000000004800000000008000400004410000400280000404000011004000840000804025081008012200004000000000000000050004C00810
:400BC0000001004080200441008006004000000800804000000000400000000280080010000051000000000000000000000000000000000000000000000000000000800096
:400C00000001000000000000000000000100000000000000000000000000000000000000000000000000000000000000000000000000002000000000000000000000000092
:400C400000000000000000000000000015009B00AE000000000030009A00DF00930008000000000000000000000000000000000004000000000000000000000000000000CE
:400C80000000000000000000000000000000000000000020000000000000000000000000000000000000000000000000000000000000000000000080000000000000000094
:400CC00000000000000000000000000000000000000000000000000000000000000000000000000000000000000000000000000000000000000000000000000000000000F4
:400D000000000000000000000000000000000000000000000000000000000000000000000000000000000000000000000000000000000000000000000000000000000000B3
:400D4000000000000000000000000000000000000000000000000000000000000000000000000000000000000000000000000000000008000000010000000000000000006A
:400D800000000000000000000000000000000000000000000000000000000000000000000000000000000000000000000000000000000080000000000000000000000000B3
:400DC00000000000000000000000000000000000000000000000000000000000000000000000000000000000000000000000000000000000000000000000000000000000F3
:400E000000000000000000000000000000000000000000000000000000000000000000000000000000000000000000000000000000000000000000000000000000000000B2
:400E4000000000000000000000000000000000000000000000000000000000000000000000000000000000040000000000000000000000000000000000000000000000006E
:400E8000000000000000000000000000000000000000000000000000000000000000000000000000000000040000000000000000000000000000000000000000000000002E
:400EC00000000000000000000000000000000000000000000000000000000000000000000000400000000000000000000000000000000000000000000000000000000000B2
:400F00000000000000000000000000000000000000100000000000000000000000000000001000000000000400000000000000000000000000000004000000000000000089
:400F400000000000000000000000000000000000000000000000000000000000000000000000000000000000000000000000000000001000000080000000000000000000E1
:400F80000000000000000000000000000000000000000000000000000000000000000000000000000000000000000000000000000000000000000000000000000000000031
:400FC00000000000000000000010000000000000000000000000000000000000000000000000000000000000000000000000000000000000000000000000000000000000E1
:4010000000000000000000000000000000000000000000000000000000000000000000000000000000000000000000000000000000000000000000000000000000000000B0
:401040000000000000000000000000000000000000000000000000000000200000000000000000000000000000000000000000000000000000000000000000000000000050
:4010800000000000000000000000000040008040400040000000000000FFFF00FF0000000000000000000000000000000000000000000000000000000000000000000000B3
:4010C00000000000000000000000000000000000000000000000000000000000000000000000000000000000000000000000000000000000000000000000000000000000F0
:4011000000000000000000000000000000000000000000000000000000000000000000000000000000000000000000000000000000000000000000000000000000000000AF
:40114000000000000000000000000000000000000000000000000000000000000000000000000000000000000000000000000000000000000000000000000000000000006F
:40118000000000000000000000000000000000000000000000000000000000000000000000000000000000000000000000000000000000000000000000000000000000002F
:0200000490006A
:0400000000000005F7
:0200000490105A
:04000000BC90ACAF55
:0200000490303A
:02000000F342C9
:0200000490402A
:4000000000000000000000000000000000000000000000000000000000000000000000000000000000000000000000000000000000000000000000000000000000000000C0
:400040000000000000000000000000000000000000000000000000000000000000000000000000000000000000000000000000000000000000000000000000000000000080
:400080000000000000000000000000000000000000000000000000000000000000000000000000000000000000000000000000000000000000000000000000000000000040
:4000C0000000000000000000000000000000000000000000000000000000000000000000000000000000000000000000000000000000000000000000000000000000000000
:0200000490501A
:0C00000000012E12306900002E1F23ABFF
:00000001FF