:1000000090FE237480F090FE207400F01200BD90EA
:10001000FE217438F01200BD90FE207404F012002E
:10002000BD90FE207400F01200BD90FE21740CF013
:100030001200BD90FE207404F01200BD90FE2074EA
:1000400000F01200BD90FE217401F01200BD90FE80
:10005000207404F01200BD90FE207400F01200BD68
:1000600090FE207400F01200BD90FE217480F0120A
:1000700000BD90FE207404F01200BD90FE207400BC
:10008000F01200BD782090FE2074FBF01200BD90AD
:100090005000AB83AC82E090FE21F01200BD90FED8
:1000A0002074FFF01200BD90FE2074FBF01200BD22
:1000B000F01200BD8B838C82A3D8D780FE7AFFDA42
:0200C000FE221E
:1050000036A53131352052756C6573212020202062
:105010005020202020202020202020202020205030
:00000001FF
