:1000000090FE337480F01200AF90FE327400F01254
:1000100000AF90FE317438F01200AF90FE327404DD
:10002000F01200AF90FE327400F01200AF90FE317B
:10003000740CF01200AF90FE327404F01200AF9016
:10004000FE327400F01200AF90FE317401F0120025
:10005000AF90FE327404F01200AF90FE327400F0E4
:100060001200AF90FE317480F01200AF90FE327437
:1000700004F01200AF90FE327400F01200AF79006D
:1000800090FE327401F01200AF900150E993B4FC7D
:100090000280FE90FE31F01200AF90FE327405F047
:1000A0001200AF90FE327401F01200AF0980D178D7
:0400B000FED8FE2256
:0A015000362E3131353D534144FC99
:00000001FF
