:1000000090FE337480F01200AD90FE327400F01256
:1000100000AD90FE317438F01200AD90FE327404E1
:10002000F01200AD90FE327400F01200AD90FE317F
:10003000740CF01200AD90FE327404F01200AD901A
:10004000FE327400F01200AD90FE317401F0120027
:10005000AD90FE327404F01200AD90FE327400F0E8
:100060001200AD90FE327400F01200AD90FE3174BB
:1000700080F01200AD90FE327404F01200AD90FEDC
:10008000327400F01200AD90FE327401F01200AD37
:1000900090FE317439F01200AD90FE327405F0120A
:1000A00000AD90FE327401F01200AD80FE78FFD8F2
:0600B000FE79FFD9FE22DB
:00000001FF
