:1000000012004A7A361200D27A2E1200D27A3112B7
:1000100000D27A311200D27A351200D27A20120040
:10002000D27A521200D27A751200D27A6C1200D2B1
:100030007A651200D27A731200D27A211200D2802D
:10004000FE78FFD8FE79FFD9FE2290FE337480F04F
:1000500012004190FE327400F012004190FE3174A3
:1000600038F012004190FE327404F012004190FE0C
:10007000327400F012004190FE31740CF012004115
:1000800090FE327404F012004190FE327400F012BF
:10009000004190FE317401F012004190FE32740470
:1000A000F012004190FE327400F012004190FE32D6
:1000B0007400F012004190FE317480F01200419003
:1000C000FE327404F012004190FE327400F012000F
:1000D000412290FE327401F012004190FE31EAF0AC
:1000E00012004190FE327405F012004190FE32740D
:0600F00001F012004122A4
:00000001FF
