:10000000780079FF7A007B5512001312009B1200D2
:100010008680ED90FE337480F022FE90FE307403F3
:10002000F012006090FE307400F0120073EE22FEB9
:1000300090FE307401F012006090FE307400F012F7
:100040000073EE22FE90FE307402F012006090FE0B
:10005000307400F0120073EE2290FE307400F02233
:10006000AC00AD01BD0004BC0004221D80F61C7D67
:10007000FF80F1AC02AD03BD0004BC0004221D8072
:10008000F61C7DFF80F130B3FD7590FFE590C394C1
:10009000F01200AD20B3FA1200592230B3FD759072
:1000A000FFE590C394F020B3FD1200C622B40F0503
:1000B00012001A8010B40E0512002F8008B40D062D
:1000C000120044800022B40B08780079FF7A007B8C
:1000D000FFB40A08780079FF7A007B55B4090878E4
:0800E000FF79007A007B012288
:00000001FF
