:1000000012003690FE407400F020B5FDE075F0332C
:10001000842430FA1200BE7A2E1200BEE5F075F08C
:1000200005842430FA1200BE12002D80D378FFD848
:10003000FE79FFD9FE2290FE337480F012002D90DD
:10004000FE327400F012002D90FE317438F0120070
:100050002D90FE327404F012002D90FE327400F0E8
:1000600012002D90FE31740CF012002D90FE3274AF
:1000700004F012002D90FE327400F012002D90FE5C
:10008000317401F012002D90FE327404F012002D34
:1000900090FE327400F012002D90FE327400F012C7
:1000A000002D90FE317480F012002D90FE32740409
:1000B000F012002D90FE327400F012002D2290FEFE
:1000C000327401F012002D90FE31EAF012002D90F2
:1000D000FE327405F012002D90FE327401F0120011
:0200E0002D22CF
:00000001FF
