:03000000020100FA
:1001000012015978037902120166120170120185F9
:10011000D8F5120178D9F01201951201661201701A
:10012000B42B1AD003D004EB2C1201CE120178EFBD
:10013000120170EE120170ED120170801AD003D01E
:1001400004EC9B1201CE120178EF120170EE120145
:1001500070ED120170800080AA7589207588407545
:100160008DFD759850223098FDE599547FC29822F4
:10017000C299F5993099FD22740D120170740A121A
:100180000170780322D003D004ADE074D02DC0E01C
:10019000C004C00322D003D004D005D006D0077419
:1001A000648FF0A4FF740A8EF0A4FEED2E2FFAD017
:1001B00005D006D00774648FF0A4FF740A8EF0A4F3
:1001C000FEED2E2FC0E0EAC0E0C004C0032275F0AF
:1001D000648494D0FFE5F075F00A8494D0FEE5F0D5
:0801E000F59094D02401FD22EA
:00000001FF
