:03000000020100FA
:1001000012015E780379021201ED1201FCF59012E2
:10011000017512018AD8F012017DD9EB12019A12F1
:10012000016B120175B42B1AD003D004EB2C120111
:10013000D312017DEF120175EE120175ED120175FA
:10014000801AD003D004EC9B1201D312017DEF1270
:100150000175EE120175ED120175800080A575899B
:1001600020758840758DFD759850223098FDE59971
:10017000547FC29822C299F5993099FD22740D12CC
:100180000175740A120175780322D003D004ADE022
:1001900074D02DC0E0C004C00322D003D004D00529
:1001A000D006D00774648FF0A4FF740A8EF0A4FE0A
:1001B000ED2E2FFAD005D006D00774648FF0A4FF7F
:1001C000740A8EF0A4FEED2E2FC0E0EAC0E0C00459
:1001D000C0032275F0648494D0FFE5F075F00A84C2
:1001E00094D0FEE5F0F59094D02401FD2230B3FDCB
:1001F0007590FF20B3FDE590C394F02204832200A4
:0F020000003000003938370036353400333231E2
:00000001FF
