:03000000020030CB
:04000B0012060032A7
:10003000758902758C4CD28C75A88212062180FBC2
:10050000808386898C8F9295989C9FA2A5A8ABAE7C
:10051000B0B3B6B9BCBFC1C4C7C9CCCED1D3D5D88E
:10052000DADCDEE0E2E4E6E8EAEBEDEFF0F2F3F449
:10053000F6F7F8F9FAFBFBFCFDFDFEFEFEFFFFFF00
:10054000FFFFFFFFFEFEFDFDFCFCFBFAF9F8F7F6EE
:10055000F5F4F2F1EFEEECEBE9E7E5E3E1DFDDDB0B
:10056000D9D7D4D2CFCDCAC8C5C3C0BDBAB8B5B229
:10057000AFACA9A6A3A09D9A9794918E8A878481F7
:100580007E7B7875716E6B6865625F5C59565350FF
:100590004D4A4745423F3C3A373532302D2B2826CD
:1005A0002422201E1C1A1816141311100E0D0B0AEB
:1005B0000908070605040303020201010000000008
:1005C00000000001010102020304040506070809F6
:1005D0000B0C0D0F1012141517191B1D1F212325AD
:1005E000272A2C2E313336383B3E404346494C4F68
:1005F0005154575A5D6063676A6D707376797C7F7A
:10060000C3ED29FDEC38FCC3EF2BFFEE3AFEEC9076
:1006100005009390FE10F0EE9005009390FE20F000
:100620002230B3FD7590FFE590C394F0F590C28C35
:10063000B40F12780379007A017B007C007D007E84
:10064000C07F00803FB40E12780179007A017B00F0
:100650007C007D007E407F00802AB40D12780179F5
:10066000007A047B007C007D007E007F008015B452
:100670000B12780379067A017B007C007D007EC036
:100680007F00800020B3FDE590D28C2204832200FD
:0F0690000030000039383700363534003332314E
:00000001FF
