:03000000020100FA
:03000300020100F7
:03000B00020100EF
:03001300020100E7
:03001B00020100DF
:03002300020100D7
:03002B00020100CF
:10010000C2AF12013F1202670A0D57656C636F6D33
:100110006520746F20362E313135210A0D4D494E40
:100120004D4F4E3E200075812FC2AFC200120267B4
:100130000D0A2A00C29812022AFA02024680E775C6
:100140008920758841758DFD7598502201EA01EA74
:1001500001EA01EA019801EA01EA018201EA01EA01
:1001600001EA01EA01EA01EA01EA01EA01EA01EA37
:1001700002CF01EA030C01EA01EA02E901EA01EA1D
:1001800001EA120218FF120286120218C0E01202DF
:100190008612027BEFC0E02212027B743E120255EF
:1001A00012025DB43AFA1201E06021F81201E0D2C5
:1001B000E7F5831201E0F5821201E01201E0F0A3FD
:1001C000D8F91201E0742E12025580D41201E01207
:1001D00001E01201E01201E0742E12025502013D0D
:1001E000120218200001220202001202670D0A20EA
:1001F00062616420636F6D6D616E64200002013D79
:100200001202670D0A2062616420706172616D657F
:10021000746572200002013D12025D1202ADC4F548
:10022000F012025D1202AD45F02212025DC2E5122B
:100230000255C394405003120200C0E0941B4003D7
:10024000120200D0E02290014CEA230493C0E0EABD
:100250002393C0E022C299F5993099FD223098FD90
:10026000E599547FC29822D083D082E493B40002EF
:100270008006120255A380F3740173740A120255AA
:10028000740D12025522C0E0120295120255EA12B4
:100290000255D0E022FA540F24F650022407243AE3
:1002A000CAC4540F24F650022407243A22C2002460
:1002B000D05017C324F64003240A22C2E5C324F910
:1002C0005008C324FA4003540F22D20002013D1209
:1002D0000218F583120286120218F58212028612A3
:1002E000027BE012028602013D120218F58312021F
:1002F00086120218F58212028612025D120255124F
:100300000218120286F012027B02013D120218F559
:1003100083120286E500F58212027B78FFE58312E4
:100320000286E58212028674201202551202181209
:100330000286F9F012027B0582D8E202013D02003A
:0103400000BC
:00000001FF
