:400000000080002011000000010100000101000008B5044B1A6803F53F5302331A6000F071F800BFFA46004010B5054C237833B9044B13B10448AFF300800123237010BD0A
:400040002081FF1F00000000F00E0000084B10B51BB108480849AFF300800848036803B910BD074B002BFBD0BDE81040184700BF00000000F00E00002481FF1F0881FF1F15
:400080000000000008B500F0F1FA012000F0A2FA184800F091FA00F011FD00F023FD002000F028FD0028FAD00020062100F0ECFA114800F081FA0020062100F0E5FA00F004
:4000C00031FD83B20D4A1380002803DA00220B4B1A8007E040F6FE72934203D940F6FF72064B1A80054B188800F0ECFA322000F079FED4E7F40E0000FC0E00003C81FF1FAB
:40010000FEE700BF08B5104E104D16E029686B68AC68002204E051F8040B43F8040B0432A242F8D1E868002203E0002143F8041B04328242F9D11035013E002EE6D100F0BD
:400140009DFEFFF79FFFFEE7010000006C0F000008B5124A124B1A60124A136843F40073136000230AE0032B03D80F4A52F8231000E00E490E4A42F8231001332F2BF2D9CA
:400180000C4B1A780C4B1A70094A0C4B1A6000F0E9F800220A4B1A6008BD00BF0004FA050CED00E014ED00E000000000010100000080FF1FBC7600400481FF1F08ED00E0C4
:4001C0000081FF1FFEE700BFF0B40022174611E050F82760F3B226F0FF0608E001EB420511F812406D78A5550132013BDBB2002BF4D101370C2FEBD9F0BC70470A4B1B7856
:40020000DBB203F00701094A11701B09013213702022074B1A70022203F693131A704422A3F28A231A707047CF0100496E5800406D51004008B50A46002100F050FE08BDE6
:4002400008B500F041FE08BD38B500242C4B1C80502202331A702B482B490422FFF7F0FF02222A4B1A7008224FF040231A70032103F500731970264B1B78DBB225490B707B
:40028000254B1A8041F25122023B1A8019250CE0224B1B7803F0010343EA440404F003044FF4F07000F08CFD013D0DB1032CEFD115B90320FFF786FF194B4FF480721A8080
:4002C00007221A70002217490A704820023108701A700222033B1A7004220A331A70124A137843F001031370013A137843F001031370013A137843F08003137038BD00BF05
:400300008040004000410040740000480043004008010049A146004022420040254200400440004006400040A2430040012807D8044B53F820201844017A13780B431370F5
:40034000704700BF040F0000012808D8044B53F820201844017A137823EA010313707047040F000070B572B6284A137843F00403137000240AE0264963001A1952000A4497
:40038000D068118AFFF756FF0134E4B2082CF2D94FF090401F49FFF717FF0A221E4B1A701E4A137843F0020313701032137843F0020313701A4C237843F040032370A2F5DC
:4003C0008632513A137843F010031370154816490822FFF735FF154815490822FFF730FF144A137843F008031370134E01253570FFF72AFF81233370104B1D70FFF7FEFE36
:400400000F4821460E22FFF71BFF70BDE8460040040F0000340000488358004003500140A04300402251004064000048625100406C00004822430040004800400400084043
:40044000B043004010B50B4C237803F09F032370237803F0F00323702378184340F010002070012000F0D4FC237803F0EF03237010BD00BF2051004038B505460E4C237832
:4004800043F020032370237803F0BF032370002000F0BEFC237803F0F003237023781D4345F010052570012000F0B2FC237803F0EF03237038BD00BF2051004070B5354BDC
:4004C0001A7802F08002D2B21A7033490A7802F0F00242F00F020A7001310A7802F0F0020A7001310A7802F0F0020A701A7802F0DF021A701A7842F040021A704FF4CA7623
:40050000002000F085FC234D2B7843F010032B70012000F07DFC214B1C78E4B22B7803F0EF032B70002000F073FC04F00804E4B22B7843F010032B70012000F069FC2B7841
:4005400003F0EF032B7014B90A2000F061FC013E0CB1002ED4D10F4A137803F0BF031370137803F08003DBB213700232137803F0F00313700132137803F0F00343F00F03AA
:4005800013700132137803F0F00343F00F03137070BD00BF20510040225100402151004010B50446FFF78AFF2009FFF765FF04F00F00FFF761FF10BD38B50546007801243E
:4005C00004E0FFF7EDFF285D0134E4B20028F8D138BD00BF10B50446FFF770FF2009FFF731FF04F00F00FFF72DFF10BD08B5282000F0F8FB0320FFF725FF052000F0F2FB64
:400600000320FFF71FFF0F2000F0ECFB0320FFF719FF012000F0E6FB0220FFF713FF052000F0E0FB0620FFF7D5FF0E20FFF7D2FF2C20FFF7CFFF0820FFF7CCFF0120FFF74B
:40064000C9FF0C20FFF7C6FF0320FFF7C3FF052000F0C8FB08BD00BF08B50C20FFF7BAFF0122014B1A7008BD3E81FF1F08B5054B5B7823B9FFF7BAFF0122024B5A70FFF7C6
:40068000EBFF08BD3E81FF1F08B5032819D8DFE800F002070D1381F08000FFF79BFF08BDA1F14000C0B2FFF795FF08BDA1F16C00C0B2FFF78FFF08BDA1F12C00C0B2FFF73D
:4006C00089FF08BD00B585B000238DF80E30092210E0134BA3FB0013DB08194603EB83035B00C31A303304A8104400F80C3C0846013AD2B20928ECD8094BA3FB0013DB0838
:4007000003EB83035B00C31A303304A9114401F80C3C01AB9818FFF74FFF05B05DF804FBCDCCCCCC10B59DF80840012C4AD10138092826D8DFE800F00525250525250D15C4
:40074000251D0F2B02D9214800781BE02048007818E00F2B02D91F48007813E01E48007810E00F2B02D91D4800780BE01C48007808E00F2B02D91B48007803E01A4800786B
:4007800000E0002040B201EB401101FB02F1C90B8AB20D2B0BD8C3F10E0289B211418AB2124901EB8401013301F8023C05E00F4B03EB84030F2103F8021C013C0B4B23F881
:4007C000242010BD002000F00BFB10BD180100491C010049190100491D0100491A0100491E0100491B0100491F0100494081FF1FF8B5074600F0ECFA06460D4D2B7843F0AE
:4008000003032B700B4C237843F0030323700A4B1F70032000F0FCFA2B7803F0FC032B70237803F0FC032370304600F0D5FAF8BDF8460040F94600409258004038B50022FC
:40084000304B1A7101285BD134222F4B1A70062202331A70082201331A70002401331C7001331C701F2201331A7002331C7001331C7001331C7001250A331D70142203F5F2
:4008800027631A70092201331A700A231F4A137001321470112103321170122101321170013215700232147001321470013213704322174B1A704420FFF79AFF5822154BA1
:4008C0001A7001331C70052205331A70022201331A7001331C7001331C70204600F05CF94FF47A620C4B1A602C20294600F078F9B620294600F0F8F91D20084900F092FA7C
:4009000038BD00BF4081FF1F004E00408658004091580040945800404881FF1F750B0000F0B583B0284D01272F70284E00247471102000F043F9102000F0C4F91D2007218B
:4009400000F084FA0422224B1A7001331C7007331C70204A137843F0180313701E4B1C7003F2F5231C7001331C700A22A3F209331A7001331C7002331C70122205331A7054
:40098000132201331A7004331C701422A3F68C231A700097204648F6B6514FF400420C23FFF7C0FE2B7806EB830313F8022C0B4B1A702B78013B36F82320094B1A802878BE
:4009C000FFF73CFF03B0F0BD0C81FF1F4081FF1F96580040075B0040935800400E4E00400C4E004070B500F0F3F906462A4B1B782A4B1A7842F001021A701A7842F01002BA
:400A00001A7010331A7842F001021A701A7842F010021A70224D2B7843F002032B70214C237843F0020323701F4A137843F003031370032000F0ECF92B7803F0FD032B70A7
:400A4000237803F0FD032370184A137843F0060313707A22164B1A70164A137843F0010313701032137843F0010313700F3A137843F0010313701032137843F001031370E1
:400A80004FF000530C4A1360A2F5C0721360304600F0A2F970BD00BF0C81FF1FAA430040F8460040F9460040915800407758004082580040A143004080E200E008B5084B15
:400AC0009B794BB9064BDB7913F0FF0F01D1FFF727FF0122024B9A71FFF784FF08BD00BF4081FF1F024A137843F0010313707047004E0040094B1B7913F0FF0F03D0074BEF
:400B00005B79DBB203E0064B1B7803F00103012B01D00028EED01846704700BF4081FF1F014E00400E4B1B7803F00303012B03D80C4B188880B209E00A4A12780A490878C2
:400B400042EA0020032B01D1084B1B78084B1B7913F0FF0F02D00022054B5A7100B27047144E0040104E0040114E0040124E00404081FF1F704700BF10B5002404E02046CC
:400B8000FFF7E2FB0134E4B2012CF8D9FF22014B1A7010BD0D81FF1F10B50446FFF7ECFF2046FFF7C3FB014B1C7010BD0D81FF1F014B188880B2704780400040034B1A7819
:400BC00000F0F80010431870704700BF82400040024B187800F00700704700BF8240004070B505460E46FFF7F3FF0446FFF7E0FF854256D02B4B1B7803F0010294B900B1B9
:400C000085B938B9284B1D80284A137803F0BF03137070BD254A137843F040031370224B1D8070BD22B3002321490B7001240F310C7004310B700C390B7803F07F030B70C3
:400C40001A4B1B7813F0080F00D08DB9194B18800721013B1970164B1B7813F0010FFAD110490B7803F0FE030B700021104B19700C4B1B7813F0010F0DD00E4B1D800EB1B2
:400C8000032200E001220A4B1A70094B1B7813F0010FFAD170BD044B1D8002490B7813430B7070BDA243004080400040824000400140004002400040014B188880B2704784
:400CC00000410040034B1A7800F0F80010431870704700BF02410040024B187800F00700704700BF0241004070B505460E46FFF7F3FF0446FFF7E0FF854256D02B4B1B7849
:400D000003F0010294B900B185B938B9284B1D80284A137803F0BF03137070BD254A137843F040031370224B1D8070BD22B3002321490B70012413310C7004390B70083939
:400D40000B7803F07F030B701A4B1B7813F0080F00D08DB9194B18800721013B1970164B1B7813F0010FFAD110490B7803F0FE030B700021104B19700C4B1B7813F0010FD0
:400D80000DD00E4B1D800EB1032200E001220A4B1A70094B1B7813F0010FFAD170BD044B1D8002490B7813430B7070BDA143004000410040024100400140004002400040C5
:400DC0000230800803D000BF01380046FCD17047EFF3108072B6704780F31088704700BF01BE704710B5044605E0084B1868FFF7E7FFA4F50044B4F5004FF6D8034B586808
:400E000000FB04F0FFF7DCFF10BD00BF1081FF1F08B5034B1B7A03FB00F0FFF7D1FF08BD1081FF1F70B504460E46074B1D681F2802D90020FFF7D4FF04F01F04103455F8A2
:400E4000240045F8246070BD08ED00E038B504460D46072902D90020FFF7C2FF1F2C02D90020FFF7BDFF04F01F0000F1604000F564406D01EDB2057038BD00BF0E4B70B536
:400E80001E460E4C0025E41AA410A54204D056F8253098470135F8E700F056F8084B094C1E46E41AA4100025A54204D056F8253098470135F8E770BD540F0000540F0000E5
:400EC000540F00005C0F000010B5431E0A44914204D011F8014B03F8014FF8E710BD03460244934202D003F8011BFAE77047000000000000414443203A2000002020202016
:400F000020000000035B00402443004040000000005100402000305100403000C05100401000F0510040100000000140001000140140000800400140000A004C01400002B0
:400F40000050014020000000F8B500BFF8BC08BC9E4670474D00000051010000F8B500BFF8BC08BC9E46704729000000800F00000881FF1F1800000030000000000000007C
:400F80000000000001FF00000000E02EC05D00001800000000366E010000000000000000000000000000000000000000000000000000000000000000000000000000000049
:400FC00000000000000000000000000000000000000000000000000000000000000000000000000000000000000000000000000000000000000000000000000000000000F1
:4010000000000000000000000000000000000000000000000000000000000000000000000000000000000000000000000000000000000000000000000000000000000000B0
:401040000000000000000000000000000000000000000000000000000000000000000000000000000000000000000000000000000000000000000000000000000000000070
:401080000000000000000000000000000000000000000000000000000000000000000000000000000000000000000000000000000000000000000000000000000000000030
:020000040003F7
:0200000480007A
:4000000001090140040A0140010B014001150140011B0140024401400145014003460140034701400248014001490140014C0140024D0140B502B802BE01D804DF011D02C3
:40004000EC10EC107C01DE01940145089401D001A508B401EC082510C820B510A508B508EC080000007F7F00000000000000000000002000B6001801000000000000000061
:400080000000000000000000000000000000000000000000000000000000000000000000000000000000000000000000000000000000000000000000000000000000000040
:4000C0000000000000000000000000000000000000000000000000000000000000000000000000000000000000000000000000000000000000000000000000000000000000
:4001000000000000000000000000000000000000000000000000000000000000000000000000000000000000000000000000000000000000000000000000000000000000BF
:40014000000000000000000000000000000000000000000000000000000000000000000000000000000000000000000000000000000000000000000000000000000000007F
:0200000490006A
:0400000000004005B7
:0200000490105A
:04000000BC90ACAF55
:0200000490303A
:0200000061C5D8
:0200000490402A
:4000000000000000000000000000000000000000000000000000000000000000000000000000000000000000000000000000000000000000000000000000000000000000C0
:400040000000000000000000000000000000000000000000000000000000000000000000000000000000000000000000000000000000000000000000000000000000000080
:400080000000000000000000000000000000000000000000000000000000000000000000000000000000000000000000000000000000000000000000000000000000000040
:4000C0000000000000000000000000000000000000000000000000000000000000000000000000000000000000000000000000000000000000000000000000000000000000
:0200000490501A
:0C00000000012E12306900012E17922E14
:00000001FF