:400000000080002011000000E5020000E502000008B5044B1A6803F53F5302331A6000F07BF900BFFA46004010B5054C237833B9044B13B10448AFF300800123237010BD35
:40004000C081FF1F0000000098300000084B10B51BB108480849AFF300800848036803B910BD074B002BFBD0BDE81040184700BF0000000098300000C481FF1F0881FF1F41
:400080000000000008B5002000F098FC80B100F0A7FC80B2074BA3FB00308008064B188040F6FE73984203D940F6FF72024B1A8008BD00BFCDCCCCCCDC81FF1F08B5002060
:4000C00000F068FD80B100F077FD80B2074BA3FB00308008064B588040F6FE73984203D940F6FF72024B5A8008BD00BFCDCCCCCCDC81FF1F234B1B88632B02D84121224A71
:400100001170A3F1640292B2632A02D842211E4A1170A3F1C80292B2632A02D843211A4A1170A3F5967292B2632A02D84421164A1170A3F5C87292B2632A02D84521124A2B
:400140001170A3F5FA7292B2632A02D846210E4A1170A3F5167292B2632A02D847210A4A1170A3F52F7292B2632A02D84821064A1170A3F548739BB2632B02D84922024B29
:400180001A707047DC81FF1F0C81FF1F234B5B88632B02D84A21224A5170A3F1640292B2632A02D84B211E4A5170A3F1C80292B2632A02D84C211A4A5170A3F5967292B2CE
:4001C000632A02D84D21164A5170A3F5C87292B2632A02D84E21124A5170A3F5FA7292B2632A02D84F210E4A5170A3F5167292B2632A02D850210A4A5170A3F52F7292B2FA
:40020000632A02D85121064A5170A3F548739BB2632B02D85222024B5A707047DC81FF1F0C81FF1F08B500F0D5FC18B953220E4B1A7108BD00F0D6FC18B954220A4B1A710E
:4002400008BD00F0D7FC18B95522074B1A7108BD00F0D8FC18B95622034B1A7108BD5722014B1A7108BD00BFDC81FF1F38B562B600F022FA00F050FA00F0DEFC00F00AFD06
:4002800000F086FB00F070FC00F090FB00F07AFCFFF7F8FEFFF712FFFFF72CFFFFF776FFFFF7C0FF0D4C207800F044FA607800F041FA0B4D287900F03DFA207800F0F8FC9E
:4002C000607800F0F5FC287900F0F2FC202000F0EFFC0A2000F05AFADAE700BF0C81FF1FDC81FF1FFEE700BF08B5094B1A681044084BC31A802B02DC054B186005E000F0B6
:40030000F1FC0C2303604FF0FF32104608BD00BF1081FF1F1082FF1F08B5104E104D16E029686B68AC68002204E051F8040B43F8040B0432A242F8D1E868002203E00021AE
:4003400043F8041B04328242F9D11035013E002EE6D100F0CDFCFFF789FFFEE7010000002832000008B5124A124B1A60124A136843F40073136000230AE0032B03D80F4A2C
:4003800052F8231000E00E490E4A42F8231001332F2BF2D90C4B1A780C4B1A70094A0C4B1A6000F0F9F800220A4B1A6008BD00BF0004FA050CED00E014ED00E0000000006A
:4003C000E50200000080FF1FBC7600400481FF1F08ED00E00081FF1FFEE700BFF0B40022174611E050F82760F3B226F0FF0608E001EB420511F812406D78A5550132013BE4
:40040000DBB2002BF4D10137192FEBD9F0BC704708B50A46002100F09CFC08BD38B50E222A4B1A8018232A490B7002310A80294A13704FF49C7204310A8002310B70023124
:400440000A80254A13700222244B1A7008224FF040231A70032103F500731970204B1B78DBB220490B70204B1A8041F25122023B1A80002419250CE01C4B1B7803F0010345
:4004800043EA440404F003044FF4F07000F06CF9013D0DB1032CEFD115B90320FFF79CFF134B4FF480721A8007221A70002211490A704820023108701A700222033B1A7008
:4004C0000D4A137843F00F03137038BD8040004082400040864000408E4000400043004008010049A146004022420040254200400440004006400040A2430040F8B51B4BBE
:400500001B78DBB21A4E3478E4B21A4F3D78EDB203F00701184A11701B090132137044F00303337045F003033B700322134B1A704023134A137002321370063213700232C3
:40054000137010220F4B1A7020230F4A137005321370033213702D3213700A2000F02CF93D7034704422094B1A70F8BDCF010049F8460040F94600406E5800400D5100402C
:4005800001590040205B0040235B00407658004008B500F0D3FB08BD38B572B6354A137843F00403137000240CE0334963001A1952000A4423445B00C8589188FFF728FF24
:4005C0000134E4B2072CF0D900240BE02A49A3001A1952000A44106B516B8022FFF7D8FF0134E4B2002CF1D04FF090402349FFF7F5FE234A137843F00203137010321378FA
:4006000043F0020313701F4C237843F040032370A2F58632513A137843F0100313701A481A490A22FFF7B4FF19481A490A22FFF7AFFF194819490822FFF7AAFF1848194946
:400640000822FFF7A5FF184A137843F008031370164D61232B70FFF7E1FE81232B700122134B1A70FFF74AFF124821460E22FFF78FFF38BDE8460040A030000068000048D0
:4006800003500140A04300400051004058060048C051004064060048F2510040700600483251004078060048224300400048004004000840B04300407222084B1A70202220
:4006C00001331A700622A3F5B2731A70472210331A70002250331A70704700BF8A65004010B500F049F804460A4A137843F0200313700132137843F010031370A2F58272B9
:40070000137843F01003137000F01EF8204600F037F810BD9A65004008B5054B1B7823B9FFF7CAFF0122024B1A70FFF7D9FF08BDE281FF1F024B1B780BB1024B187070475D
:40074000E281FF1F47650040054A137843F0080313701032137843F008031370704700BFA2430040000000000230800803D000BF01380046FCD17047EFF3108072B67047A8
:4007800080F31088704700BF01BE704710B5044605E0084B1868FFF7E7FFA4F50044B4F5004FF6D8034B586800FB04F0FFF7DCFF10BD00BF1481FF1F08B5034B1B7A03FB51
:4007C00000F0FFF7D1FF08BD1481FF1F70B504460E46074B1D681F2802D90020FFF7D4FF04F01F04103455F8240045F8246070BD08ED00E038B504460D46072902D90020E2
:40080000FFF7C2FF1F2C02D90020FFF7BDFF04F01F0000F1604000F564406D01EDB2057038BD00BF08B50A280FD00C2802D0082806D102E04FF4805209E04FF4807206E0C0
:400840000020FFF7A1FF002201E04FF480620021094B198042F2107303FB02F303F6C413064A82FB0302DB17C3EBE223044A1360044B198008BD00BFF081FF1FAD8BDB6864
:40088000F481FF1FF281FF1F10B5FFF775FF04461E4A137843F0010313701032137843F001031370193A137843F0010313701032137843F00103137002F5AA521132137887
:4008C00043F0030313701822114B1A70013B1A7842F040021A701A7802F0FC021A70C822053B1A700222A3F597530C3B1A70094A137843F0080313700A20FFF75DFF0122DB
:40090000054B1A602046FFF73BFF10BDAB43004006590040275B004080E200E010B504460A280DD00C2802D0082804D101E0C22207E0422205E00020FFF726FFC22200E09C
:400940008222034B1A702046FFF76CFF10BD00BF0259004008B5102000F05AF900200721FFF748FF00200749FFF730FF064A137843F0060313700C20FFF7D0FF0022034BC8
:400980001A8008BDF909000001590040F881FF1F08B5054B1B7823B9FFF7DCFF0122024B1A70FFF771FF08BDE481FF1F024A137843F00103137070470059004010B5074BB8
:4009C0001B7813F0010401D10028F8D024B10120FFF7F2FE014B1B78204610BD01590040034B1B88034A1088181A00B2704700BFA05B0040F281FF1F704700BF08B50A28B1
:400A00000FD00C2802D0082806D102E04FF4805209E04FF4807206E00020FFF7B5FE002201E04FF480620021094B198042F2107303FB02F303F6C413064A82FB0302DB1792
:400A4000C3EBE223044A1360044B198008BD00BF0482FF1FAD8BDB68FC81FF1F0082FF1F38B5FFF789FE04461E4A137843F0020313701032137843F002031370193A137874
:400A800043F0020313701032137843F00203137002F5AA521932137843F0030313701822114B1A70013B1A7842F040021A701A7802F0FC021A70C822053B1A700225A3F503
:400AC0009753123B1D70094A137843F0080313700A20FFF771FE064B1D602046FFF750FE38BD00BFAB4300400E5900402F5B004080E200E010B504460A280DD00C2802D0D3
:400B0000082804D101E0C22207E0422205E00020FFF73AFEC22200E08222034B1A702046FFF76CFF10BD00BF0A59004008B5102000F078F801200721FFF75CFE01200749E0
:400B4000FFF744FE064A137843F0060313700C20FFF7D0FF0022034B1A8008BDD10B0000095900400282FF1F08B5054B1B7823B9FFF7DCFF0122024B1A70FFF771FF08BD51
:400B8000E581FF1F024A137843F00103137070470859004010B5074B1B7813F0010401D10028F8D024B10120FFF706FE014B1B78204610BD09590040034B1B88034A1088DA
:400BC000181A00B2704700BFA25B00400082FF1F704700BF024B1878C0F30010704700BF01510040024B1878C0F34010704700BF01510040024B1878C0F38010704700BF22
:400C000001510040014B1878C009704701510040034B1A7800F0F80010431870704700BF82400040034B1A7800F0F80010431870704700BF864000407222074B1A70202248
:400C400001331A700622633B1A70472210331A70002251331A7070478665004010B5FFF78BFD04460A4A137843F0200313700132137843F010031370023A137843F0100345
:400C8000137000F021F82046FFF77AFD10BD00BF9665004008B5054B1B7823B9FFF7CCFF0122024B1A70FFF7D9FF08BDE681FF1F034B1B7813F0040FFAD1024B1870704771
:400CC0006565004045650040054A137843F0040313701032137843F004031370704700BFA2430040014B1868704700BF8481FF1F0E4B70B51E460E4C0025E41AA410A542E5
:400D000004D056F8253098470135F8E702F07AFA084B094C1E46E41AA4100025A54204D056F8253098470135F8E770BD1032000010320000103200001832000010B5431E4A
:400D40000A44914204D011F8014B03F8014FF8E710BD03460244934202D003F8011BFAE770472DE9F0471E4688B0149F002BB8BF06F10043129927F02007B6BF1E460023F0
:400D80002D23462F1446109DDDF84CA00B7003D0452F03D1013501E0032300E002238DE8280406AB039307AB04932246334600F0DFFB472F804602D1119BDB0726D5462FE5
:400DC00008EB050911D198F80030302B0AD1204631460022002302F005F918B9C5F10105CAF80050DAF800309944204631460022002302F0F7F808B1CDF81C90079B4B452B
:400E000004D25A1C079230221A70F7E74046079B159AC8EB0303136008B0BDE8F087034673B50029B8BF494203F8022BB4BF2D222B22092942701ADD0DF1070426460A22ED
:400E400091FBF2F502FB1511092D01F1300104F8011D2946F3DC3031651E04F8011CB5421A460AD215F8012B03F8012BF7E71A463024214402F8024B5970101A02B070BD8B
:400E80002DE9F04F91B08B4615461E461A9F044601F02AF9D0F800A0504600F0D5FA00230E933B680990073323F0070303F108029BF818803A60D3E90023CBE91223DBE992
:400EC000120100F099FA0128DBE9120119D10022002302F091F810B12D238BF84330A04BA04FB8F1470F88BF1F460323CBF81030DBF8003023F00403CBF800304FF00009A5
:400F0000A1E000F079FADBF8003048B9964A974FB8F1470F88BF17460322CBF81020E9E7DBF80420DBE91201571CCDE90A0101D1062209E0B8F1670F02D0B8F1470F05D1CD
:400F4000002A40F0C7810122CBF80420DBF8042043F480638DE80C00CBF800300DF1330302930DAB03930EAB059300230693CDF81080DDE90A232046FFF7F3FE08F0DF03AD
:400F8000472B07460AD10D9BD81C03DBDBF80420934237DDA8F102085FFA88F8B8F1650F0D9915D8013942460BF150000D91FFF736FF0E9A81468318012ACBF8103003DC23
:400FC000DBF80020D10738D50133CBF8103034E0B8F1660F18D10029DBF8043009DDCBF810101BB9DBF80020D20721D501330B441CE01BB9DBF80020D00701D5023315E01B
:40100000012313E04FF067080D9B0E9A934207DBDBF80020CBF81030D10709D5013305E0002BD4BFC3F1020301231344CBF810300D9B4FF00009CBF858309DF8333013B133
:401040002D238BF843300096204659460FAA2B4600F05CF9013002D14FF0FF3052E1DBF800305A0505D4204629463A46DBF8103008E1B8F1650F40F2D080DBE91201002257
:40108000002301F0AFFF50B320462946384A0123B0470130E0D00E9B0D9A9A4209DBDBF80030D80705D4DBF800309F0700F1108107E1204629465246099BB0470130CBD066
:4010C00000270E9B013B9F42EDDA204629460BF11A020123B0470130BED00137F1E70D9B002B29DC20462946214A0123B0470130B2D00D9B2BB90E9B1BB9DBF80030D90793
:40110000D1D5204629465246099BB0470130A3D04FF000080D9B20465B429845294608DA0BF11A020123B047013095D008F10108F0E73A460E9BA5E0DBF858200E9B9A421D
:40114000A8BF1A46002A914602DC4FF000081CE0204629463A464B46B0470130F5D17BE7E2300000DE300000EA300000E6300000EE300000204629460BF11A020123B047DA
:4011800001303FF469AF08F10108DBF85830B9F1000FB4BF1A46C9EB03029045EADB07EB03080D9A0E9B9A4210DBDBF80030DA070CD40E9A1744C8EB07030D9FD21B934271
:4011C000A8BF1346002B1F4608DC0EE0204629465246099BB0470130EBD13DE7204629464246B04701303FF437AF4FF000080AE0204629460BF11A020123B04701303FF479
:401200002BAF08F101080D9A0E9B002FA3EB0203A8BFDB1B9845EBDB45E70E9A012A01DCDB0736D5204629463A460123B04701303FF412AF204629465246099BB047013029
:401240003FF40AAFDBE912010022002301F0CAFEE8B90E9B204629467A1C013B1DE0204629460BF11A020123B04701303FF4F4AE01370E9B013B9F42F1DB204629464B4681
:401280000BF15002B04701307FF40DAFE4E60027EFE7204629463A460123B0470130ECD1DAE6204629460BF119020123B04701303FF4D2AE0137DBF80C300F9A9B1A9F4233
:4012C000EFDBDBF80C000F9B9842B8BF184619E00027F0E743F480638DE80C00CBF800300DF1330302930DAB03930EAB059300230693CDF810802046DDE90A23FFF731FD71
:40130000074640E611B0BDE8F08F00BF2DE9F84391461F468A680B6906469342B8BF1346C9F8003091F843200C46DDF8208012B10133C9F800302368990642BFD9F80030FA
:401340000233C9F80030256815F006051CD094F843302268003318BF012392061FD5E118302081F843005A1C94F845102244023382F8431013E03046394604F1190201239B
:40138000C047013007D00135E368D9F800209B1A9D42F0DBDBE74FF0FF30BDE8F8833046394604F14302C0470130F4D02268D9F80050E36802F00602042A08BF5D1B2269EA
:4013C000A3680CBF25EAE57500259342C4BF9B1AED184FF00009A9450ADA3046394604F11A020123C0470130D5D009F10109F2E70020BDE8F883000031F0004310B51BD025
:401400000F4AA1F58014944210D901F1FF410C4A01F5E001914209D9B3F5801F08D3094A934207D1B0FA80F0400910BD042010BD032010BD002010BD0028E6D1022010BD68
:40144000FFFFDF7F0000F07F034613F8012B002AFBD1181A013870472DE9F74F03690C698046A3427EDB013C01F114074FEA840E00F1140606EB0E0357F82450019356F801
:4014800024300135B3FBF5F507EB0E09BDB34FF0000A3846B446D34650F8043B9AB21B0C02FB05A26B4303EB124392B2C2EB0B0BBCF800204FEA134A5A441FFA83FBDCF8AE
:4014C00000304845CBEB134303EB224392B242EA03424FEA234B4CF8042BDDD956F80E306BB9019B043BB3421A4602D8C8F8104005E01268043B002AF8D1013CF3E7404653
:4015000001F00FF800282BDB304601354FF0000E57F8042B036891B2C1EB0E0E120C99B27144C2EB134303EB214389B24FEA234E4F4541EA034340F8043BE9D956F8242070
:4015400006EB840362B9043BB3421A4602D8C8F8104005E01268043B002AF8D1013CF3E7284600E0002003B0BDE8F08F000000002DE9F04F456A95B08246219CCDE90223C4
:4015800045B9102000F0B4FDCAF82400456085600560C560DAF82430196859B15A68012393404A608B60504600F0DFFDDAF8243000221A60039BA24A002BBDBF0123236067
:4015C000039B0023BCBF23F000430393039FA8BF236027F000431B0D1B0593421DD142F20F73209A1360029B43B9964A964BC7F31300002814BF1846104600E09248229BA2
:40160000002B00F06985C37813B100F1080300E0C31C229A136000F05FBDDDE90245002220462946002301F0DDFC804658B1209A01231360229B002B00F03C8583481860BF
:40164000013800F049BD13AB009312AB0193504622462B4600F0E0FFC7F30A5607905EB1C5F3130343F07F51204641F44011A6F2FF36CDF844801DE0139B129E1E446FF468
:4016800082639E42A1BF029A06F2124322FA03F06F4BB7BF6F4B9B1B029A9B1BAABF9F4002FA03F0384301F0BFF90123A1F1F871013E11930022684B01F078F85AA3D3E9CF
:4016C000002301F027FA5AA3D3E9002301F070F8044630460D4601F0B7F957A3D3E9002301F018FA02460B462046294601F060F804460D4601F0A8FC294683460022204647
:40170000002301F079FC58B1584601F09DF902460B462046294601F065FC08B90BF1FF3BBBF1160F0DD84D4B03EBCB03D3E90001DDE9022301F07EFC30B10BF1FF3B0023E4
:4017400000E00123109300E01090129B9E1B731E0A9345BF5B420993002300234CBF0A930993BBF1000F07DB0A9BCDF834B05B440A9300230B9308E0099BCBEB030309931B
:40178000CBF100030B9300230D931E9B092B29D8052BC4BF043B1E931E9BC8BF0025A3F10203D8BF0125032B21D8DFE803F0020E0410002300E001230C931F9B002B20DC11
:4017C0000123069305931A4619E0002300E001230C931F9B5B4406930133012B0593B8BF012311E0012500231E930C9501E001230C934FF0FF3306930593002212231F9216
:4018000002E01F9B06930593DAF8244000226260042101F114029A4222D86268490001326260F6E7AFF3008061436F63A787D23FB3C8608B288AC63FFB799F501344D33F19
:401840000000F07FF0300000F9300000EF3000000EFCFFFFEEFBFFFF0000F83F083100005046616800F04CFCDAF8243020601B680893059B0E2B00F24781002D00F0448162
:40188000DDE90223BBF1000FCDE90E2331DDB14A0BF00F034FEA2B1602EBC303F006D3E900450CD5DDE90E01AB4B06F00F06D3E9082301F059FA0327CDE9020100E0022793
:4018C000DFF8948276B1F10708D5D8E900232046294601F01FF904460D460137761008F10808EFE7DDE9020122462B4601F03CFA1BE0CBF10004DCB1DDE90E01954B04F049
:401900000F0203EBC203D3E9002301F003F9924D241102274CB1E20704D5D5E90023013701F0F8F864100835F4E7CDE9020100E00227109BDBB1DDE9024500222046294698
:40194000864B01F059FB90B1059B83B1069B002B40F3D680294620460022814B01F0DAF80BF1FF36CDE902010137069D01E05E46059D3846DDE9028901F066F842464B463E
:4019800001F0C8F8774B002200F012FFCDE90201039BA3F150740394CDB9404649460022714B00F003FF029A23468046894601F041FB002840F0408240464946029A04F159
:4019C000004301F019FB002840F0308298E0614B0C996A1E03EBC203002947D0D3E900230020624901F0C0F9DDE9022300F0DEFECDE90201089C4946404601F025FB074676
:401A000001F022F802460B464046494600F0CEFEDDE90223303704F8017B8046894601F0EBFA002840F0378342464B4600204B4900F0BCFEDDE9022301F0DEFA002840F067
:401A4000D080089BE31AAB425ADADDE902010022434B01F05FF80022CDE90201404B4046494601F057F880468946C4E7D3E90001DDE9022301F04EF8089BCDE902015C19E9
:401A80001D464946404601F0DFFA074600F0DCFF02460B464046494600F088FE303705F8017BA5428046894623D100222F4BDDE9020100F07DFE02460B464046494601F0E9
:401AC000B9FA002840F08D80DDE902230020274900F06CFE02460B464046494601F08CFA70B114F8013C621E302B40F0D4821446F7E700221A4B01F00DF880468946C0E718
:401B0000DDE90E23CDE90223139B002BC0F28A80BBF10E0F00F386800E4B03EBCB03D3E900671F9B002B23DA059B002B20DC40F07C81304600220C4B394600F0EBFFDDE960
:401B4000022301F06DFA059D2E46002840F06F8174E100BF08310000D03100000000F03F0000244000001C40000014400000E03F089CDDE9028932463B464046494601F0E6
:401B8000F3F801F061FA054600F05EFF32463B4600F0C0FF0B4602464946404600F006FE05F1300E089B04F801EBC3EB040E059B9E452AD102460B4600F0FAFD32463B4696
:401BC0008046894601F036FA70B94046494632463B4601F007FA002800F05E82EB0703D45AE2B34600E01C4614F8012C631E392A07D1089A9342F6D13023137013460BF170
:401C0000010B1A7801321A7046E20022A34B00F081FF002200238046894601F0E3F90028A9D039E20C9A002A32D01E9A012A0ADC119A12B103F2334302E0129BC3F136034E
:401C40000B9D099C18E0059B5D1E0B9BAB42B7BF0B9B5D1BEA1A0D9BBEBF0B959B180D93059BB8BF0025002BB9BF099B059A099C059BBCBF9C1A0023099A50461A440992D4
:401C80000A9A01211A440A9200F011FB064602E00B9D099C0C9E64B10A9B002B09DDA342A8BF2346099AE41AD21A09920A9AD31A0A930B9B002B20DD0C9BC3B1002D10DD6A
:401CC00031462A46504600F08BFB0646079A3146504600F0F5FA07460799504600F045FA07970B9B5A1B08D05046079902E0504607990B9A00F074FB07905046012100F044
:401D0000D6FA0D9B0546002B0ADD29461A46504600F066FB1E9B0546012B04DD00271BE01E9B012B13DC029B8BB9039BC3F313037BB9039B23F000473F0D3F0557B1099B5E
:401D40000127013309930A9B01330A9302E0002700E0029F0D9B43B12B6905EB8303186900F058FAC0F1200000E001200A9B184410F01F0008D0C0F12003042B02DDC0F1A5
:401D80001C0002E008D018461C30099B0444034409930A9B03440A93099B002B05DD504607991A4600F06AFB07900A9B002B05DD294650461A4600F061FB0546109BEBB123
:401DC0000798294600F0ADFB002817DA0023504607990A2200F0E0F90C9B0BF1FF3B0790002B00F06B813146002350460A2200F0D3F9069B0646002B33DC68E1059B002B08
:401E000026DC1E9B022B23DD059B0693069B73B929460522504600F0BFF905460798294600F07FFB002809DC01E000252E461F9B089C6FEA030B08E0B3462E46089B089A37
:401E40005C1C312313700BF1010BB14600260FE10C9B23B9059B0693089F079CC9E0059B0693002C05DD31465046224600F006FB0646AFB17168504600F042F90446326977
:401E800006F10C01023292000C30FEF757FF50462146012200F0F2FA814602E000002440B146089F079C29462046FFF7D5FA3146099000F13008204600F033FB4A4605900B
:401EC0002946504600F049FBC26803463AB919462046079300F025FB079B024600E0012250461946079200F040F9079A92B91E9B83B9029B03F0010363B9B8F1390F3B462D
:401F000007943ED0059B7C1C002BC4BF099B03F131083DE0059B002B04DA002AC446079408DC21E024D11E9B13BB029B03F00103F3B9F2E72146012250460597CDF8088029
:401F400000F09CFA2946079000F0EBFA0028DDF808C0059B03DC07D118F0010F04D0B8F1390F0ED008F1010C7C1C87F800C07FE0002A07F101020EDDB8F1390F3B460794D0
:401F800003D1392201371A7057E0144608F1010887F800806CE0089B1746D31A02F8018C069A93423AD021460A220023504600F0F3F84E450446314650464FF00A024FF0C4
:401FC000000304D100F0E8F8064681466BE700F0E3F8494606460A225046002300F0DCF8814660E7214650460A22002300F0D4F8044620462946FFF72FFA089B00F1300865
:4020000007F8018B069AFB1A9342EBDB089BB146012AACBF9B1801331F46002621460122504600F02BFA2946079000F07AFA002803DC15D118F0010F12D03C4614F8013CD2
:40204000621E392B09D1089B9A4204D10BF1010B3123089A02E01446F0E70133137007E03C4614F8013C621E302B01D11446F8E75046294600F079F8B9F1000F0CD02EB114
:402080004E4503D05046314600F06FF85046494600F06BF800E0B3465046079900F065F80023209A23700BF101031360229B1BB11C6001E00A480FE008980DE0069B002B1F
:4020C0003FF7CAAE1E9B022B3FF7A0AEC4E61E9B022B3FF79BAEC4E615B0BDE8F08F00BFEE300000AFF30080004870478881FF1F024B0146186800F0EFBA00BF8481FF1F72
:4021000070B5456A04460E463DB91020FFF7F0FF6062456085600560C560656AEB6843B1636ADB6853F8260078B1026843F8262017E020460421212200F0C0FA636AE8601D
:40214000DB68002BECD1002070BD012101FA06F56A1D2046920000F0B1FA0028F3D04660856000230361C36070BD70B5446A06460D463CB91020FFF7BBFF706244608460C7
:402180000460C4603DB1736A6A68DB6853F82210296043F8225070BD2DE9F04106460C460F69984601F1140E0023DEF80000013385B2010C02FB0585514301EB1541ADB25B
:4021C0004FEA1148BB4205EB01414EF8041BECDBB8F1000F1BD0A3689F4212DB616830460131FFF78DFF0546226904F10C01023292000C30FEF7A2FD21463046FFF7B5FF8E
:402200002C4604EB87030137C3F8148027612046BDE8F081030C1B0413B90004102300E0002310F07F4F04BF0002083310F0704F04BF0001043310F0404F04BF8000023365
:40224000002803DB420003D5581C70471846704720207047036813F007020BD0D90722D49A074BBF5B089B08036003604CBF01200220704799B209B91B0C102213F0FF0FEC
:4022800004BF1B0A0832190704BF1B090432990704BF9B080232D90702D45B0805D00132036010467047002070472020704710B50C460121FFF724FF01224461026110BDDC
:4022C0002DE9F74F14460A69236988469A42BEBF0B46A0461C46D8F81070D4F81090D8F80830D8F8041007EB09069E42C8BF0131FFF706FF00F114052B4605EB860C634587
:4023000003D2002243F8042BF9E704F1140208F1140102EB890301EB87070093009B01929A4257D2B2F800B0BBF1000F23D08946AE464FF0000859F8044BBEF800A0A3B22D
:402340000BFB03A34FEA144ADEF8004043444FEA14480BFB0A84F24604EB13449BB243EA04434F454FEA14484AF8043B01D9D646E1E7CEF80480019B0432B3F802A0BAF199
:40238000000F21D02C4689462B684FF00008B9F800E0B4F802B09BB20AFB0EBEA346F04443EA08434BF8043B59F8043BB4F804E01B0C0AFB03E3B94503EB18434FEA1348D1
:4023C00001D25C46E3E763600435A7E75CF8043D13B9013E002EF9DC066103B0BDE8F08F12F003032DE9F04106460F46154607D0214A013B52F823200023FFF7CDFE0746AC
:40240000AD1035D0746A3CB91020FFF771FE7062446084600460C460D6F82480D8F808407CB9304640F27121FFF741FF0023C8F808000446036004E06D1019D0206870B1D6
:402440000446EB07F8D5394622463046FFF738FF804639463046FFF788FE4746ECE7304621462246FFF72CFF002320600360E7E73846BDE8F08100BFF83100002DE9F0472F
:402480000C460746164623694FEA621A0AEB03094968A36809F101059D4202DD01315B00FAE73846FFF72CFE804600F114010023534504DA002241F823200133F8E72AEA2F
:4024C000EA73206901EB830316F01F0204F1140101EB800E14D0C2F1200C00200E689A469640304343F8040B51F8040B714520FA0CF0F3D3CAF8040048B109F1020506E07D
:40250000043B51F8042B714543F8042FF9D3013D3846C8F810502146FFF727FE4046BDE8F08703690A6910B59B1A11D192001430143183180A4453F8044D52F8041D8C42E0
:4025400002D007D3012010BD8342F4D8002010BD184610BD4FF0FF3010BD2DE9F84307460C46084611461546FFF7DBFF061E08D138463146FFF7C4FD012303614661BDE8A0
:40258000F883BCBF23462C4638466168BABF1D4601260026FFF7B4FD2B69C660266905F1140904F1140101EB860709EB830800F114054FF0000C51F8042B59F8044B93B223
:4025C0009C44A3B2240CC3EB0C03C4EB124202EB23429BB24FEA224CC84543EA02428E4645F8042BE7D8BE450ED25EF8043B9AB262441B0C03EB224392B242EA03424FEA21
:40260000234C45F8042BEEE755F8043D0BB9013EFAE70661BDE8F8832DE9F3411C4601211546089F099EFFF76BFDC4F31302C4F30A5480460CB142F480120192EDB102A815
:4026400040F8085DFFF706FE009B50B1019AC0F1200102FA01F10B43C240C8F81430019201E0C8F81430019B002B14BF02250125C8F81830C8F8105009E001A8FFF7EAFD82
:40268000019B0125C8F81430C8F81050203034B1A4F2334404443C60C0F1350009E0A0F2324008EB850338601869FFF7B3FDC0EB45103060404602B0BDE8F08138B502FB39
:4026C00001F4214600F008F8054618B100212246FEF73FFB284638BD70B5CC1C24F0030408340C2C38BF0C24002C064603DA0C233360002070BD8C42F9D3204A1368104663
:402700001946A1B10A68121B0ED40B2A03D90A608B188C501FE08B420BBF5A684A6802605A6018BF0B4616E00B464968E9E7144D2B681BB9304600F025F8286030462146A7
:4027400000F020F8421C0346D1D0C51C25F0030585420AD11C6003F10B001A1D20F00700821A0AD05142995070BD3046E91A00F009F80130BBD02B46ECE770BDEC81FF1F5F
:40278000E881FF1F38B5064C0023054608462360FDF7AAFD431C02D1236803B12B6038BD0882FF1F81F0004102E000BF83F0004330B54FEA41044FEA430594EA050F08BF9A
:4027C00090EA020F1FBF54EA000C55EA020C7FEA645C7FEA655C00F0E2804FEA5454D4EB5555B8BF6D420CDD2C4480EA020281EA030382EA000083EA010180EA020281EAD8
:402800000303362D88BF30BD11F0004F4FEA01314FF4801C4CEA113102D0404261EB410113F0004F4FEA03334CEA133302D0524263EB430394EA050F00F0A780A4F101048D
:40284000D5F1200E0DDB02FA0EFC22FA05F2801841F1000103FA0EF2801843FA05F359410EE0A5F120050EF1200E012A03FA0EFC28BF4CF0020C43FA05F3C01851EBE3715E
:4028800001F0004507D54FF0000EDCF1000C7EEB00006EEB0101B1F5801F1BD3B1F5001F0CD349085FEA30004FEA3C0C04F101044FEA445212F5800F80F09A80BCF1004F15
:4028C00008BF5FEA500C50F1000041EB045141EA050130BD5FEA4C0C404141EB010111F4801FA4F10104E9D191F0000F04BF01460020B1FA81F308BF2033A3F10B03B3F10B
:4029000020020CDA0C3208DD02F1140CC2F10C0201FA0CF021FA02F10CE002F11402D8BFC2F1200C01FA02F120FA0CFCDCBF41EA0C019040E41AA2BF01EB0451294330BD7C
:402940006FEA04041F3C1CDA0C340EDC04F11404C4F1200220FA04F001FA02F340EA030021FA04F345EA030130BDC4F10C04C4F1200220FA02F001FA04F340EA0300294604
:4029800030BD21FA04F0294630BD94F0000F83F4801306BF81F480110134013D4EE77FEA645C18BF7FEA655C29D094EA050F08BF90EA020F05D054EA000C04BF1946104611
:4029C00030BD91EA030F1EBF0021002030BD5FEA545C05D14000494128BF41F0004130BD14F580043CBF01F5801130BD01F0004545F0FE4141F470014FF0000030BD7FEA92
:402A0000645C1ABF194610467FEA655C1CBF0B46024650EA013406BF52EA033591EA030F41F4002130BD00BF90F0000F04BF0021704730B54FF4806404F132044FF00005CE
:402A40004FF0000150E700BF90F0000F04BF0021704730B54FF4806404F1320410F0004548BF40424FF000013EE700BF42004FEAE2014FEA31014FEA02701FBF12F07F43B7
:402A800093F07F4F81F06051704792F0000F14BF93F07F4F704730B54FF4607401F0004521F0004120E700BF50EA010208BF704730B54FF000050AE050EA010208BF7047AD
:402AC00030B511F0004502D5404261EB41014FF4806404F132045FEA915C3FF4DCAE4FF003025FEADC0C18BF03325FEADC0C18BF033202EBDC02C2F1200300FA03FC20FA0D
:402B000002F001FA03FE40EA0E0021FA02F11444C1E600BF70B54FF0FF0C4CF4E06C1CEA11541DBF1CEA135594EA0C0F95EA0C0F00F0DEF82C4481EA030621EA4C5123EA61
:402B40004C5350EA013518BF52EA033541F4801143F4801338D0A0FB02CE4FF00005E1FB02E506F00042E0FB03E54FF00006E1FB03569CF0000F18BF4EF0010EA4F1FF0425
:402B8000B6F5007F64F5407404D25FEA4E0E6D4146EB060642EAC62141EA55514FEAC52040EA5E504FEACE2EB4F1FD0C88BFBCF5E06F1ED8BEF1004F08BF5FEA500E50F1D1
:402BC000000041EB045170BD06F0004646EA010140EA020081EA0301B4EB5C04C2BFD4EB0C0541EA045170BD41F480114FF0000E013C00F3AB8014F1360FDEBF002001F0BB
:402C0000004170BDC4F10004203C35DA0C341BDC04F11404C4F1200500FA05F320FA04F001FA05F240EA020001F0004221F0004110EBD37021FA04F642EB06015EEA430E21
:402C400008BF20EAD37070BDC4F10C04C4F1200500FA04F320FA05F001FA04F240EA020001F0004110EBD37041F100015EEA430E08BF20EAD37070BDC4F1200500FA05F20F
:402C80004EEA020E20FA04F301FA05F243EA020321FA04F001F0004121FA04F220EA020000EBD3705EEA430E08BF20EAD37070BD94F0000F0FD101F00046400041EB010119
:402CC00011F4801F08BF013CF7D041EA060195F0000F18BF704703F00046520043EB030313F4801F08BF013DF7D043EA0603704794EA0C0F0CEA135518BF95EA0C0F0CD0AF
:402D000050EA410618BF52EA4306D1D181EA030101F000414FF0000070BD50EA410606BF1046194652EA430619D094EA0C0F02D150EA013613D195EA0C0F05D152EA0336F8
:402D40001CBF104619460AD181EA030101F0004141F0FE4141F470014FF0000070BD41F0FE4141F4780170BD70B54FF0FF0C4CF4E06C1CEA11541DBF1CEA135594EA0C0F31
:402D800095EA0C0F00F0A7F8A4EB050481EA030E52EA03354FEA013100F088804FEA03334FF0805545EA131343EA12634FEA022245EA111545EA10654FEA00260EF0004191
:402DC0009D4208BF964244F1FD0404F5407402D25B084FEA3202B61A65EB03055B084FEA32024FF480104FF4002CB6EB020E75EB030E22BFB61A754640EA0C005B084FEA34
:402E00003202B6EB020E75EB030E22BFB61A754640EA5C005B084FEA3202B6EB020E75EB030E22BFB61A754640EA9C005B084FEA3202B6EB020E75EB030E22BFB61A7546C8
:402E400040EADC0055EA060E18D04FEA051545EA16754FEA06164FEAC30343EA52734FEAC2025FEA1C1CC0D111F4801F0BD141EA00014FF000004FF0004CB6E711F4801FF8
:402E800004BF01430020B4F1FD0C88BFBCF5E06F3FF6AFAEB5EB030C04BFB6EB020C5FEA500C50F1000041EB045170BD0EF0004E4EEA113114EB5C04C2BFD4EB0C0541EA0E
:402EC000045170BD41F480114FF0000E013C90E645EA060E8DE60CEA135594EA0C0F08BF95EA0C0F3FF43BAF94EA0C0F0AD150EA01347FF434AF95EA0C0F7FF425AF1046EF
:402F000019462CE795EA0C0F06D152EA03353FF4FDAE1046194622E750EA410618BF52EA43067FF4C5AE50EA41047FF40DAF52EA43057FF4EBAE12E74FF0FF3C06E000BF85
:402F40004FF0010C02E000BF4FF0010C4DF804CD4FEA410C7FEA6C5C4FEA430C18BF7FEA6C5C1BD001B050EA410C0CBF52EA430C91EA030F02BF90EA020F0020704710F191
:402F8000000F91EA030F58BF994208BF90422CBFD8176FEAE37040F0010070474FEA410C7FEA6C5C02D150EA013C07D14FEA430C7FEA6C5CD6D152EA033CD3D05DF8040BC1
:402FC000704700BF8446104662468C461946634600E000BF01B5FFF7B7FF002848BF10F1000F01BD4DF808EDFFF7F4FF0CBF012000205DF808FB00BF4DF808EDFFF7EAFF5C
:4030000034BF012000205DF808FB00BF4DF808EDFFF7E0FF94BF012000205DF808FB00BF4DF808EDFFF7CEFF94BF012000205DF808FB00BF4DF808EDFFF7C4FF34BF0120DC
:4030400000205DF808FB00BF4FEA410212F5001215D211D56FF47873B3EB625212D94FEAC12343F0004343EA505311F0004F23FA02F018BF404270474FF00000704750EA2A
:40308000013005D111F0004008BF6FF0004070474FF00000704700BF0000000000000000105100402000405100403000000001400010001401408006001B0140000100406B
:4030C0000140000A004C01400002005001402000801A0140D8050048800000004300494E4600696E66004E414E006E616E003000496E66696E697479004E614E00504F53E5
:403100004958002E00000000000000000000F03F000000000000244000000000000059400000000000408F40000000000088C34000000000006AF8400000000080842E41E5
:4031400000000000D01263410000000084D797410000000065CDCD41000000205FA00242000000E876483742000000A2941A6D42000040E59C30A2420000901EC4BCD642BA
:4031800000003426F56B0C430080E03779C3414300A0D8855734764300C84E676DC1AB43003D9160E458E143408CB5781DAF154450EFE2D6E41A4B4492D54D06CFF0804468
:4031C000F64AE1C7022DB544B49DD9794378EA440080E03779C34143176E05B5B5B89346F5F93FE9034F384D321D30F94877825A3CBF737FDD4F1575050000001900000096
:403200007D000000F8B500BFF8BC08BC9E4670474D00000065030000F8B500BFF8BC08BC9E46704729000000383200000881FF1FB800000050000000000000000404000014
:403240001082FF1F0000E02EC05D00001800000000366E010000000000000000000000000000000000000000000000000000000000000000DC3000000000000000000000AA
:40328000000000000000000000000000000000000000000000000000000000000000000000000000000000000000000000000000000000002481FF1F0331000004310000E2
:4032C0000431000004310000043100000431000004310000043100000431000004310000FFFFFFFFFFFFFFFFFFFFFFFFFFFF00000000000000000000000000000000000034
:40330000000000000000000000000000000000000000000000000000000000000000000000000000000000000000000000000000000000000000000000000000000000008D
:40334000000000000000000000000000000000000000000000000000000000000000000000000000000000000000000000000000000000000000000000000000000000004D
:40338000000000000000000000000000000000000000000000000000000000000000000000000000000000000000000000000000000000000000000000000000000000000D
:4033C00000000000000000000000000000000000000000000000000000000000000000000000000000000000000000000000000000000000000000000000000000000000CD
:020000040003F7
:0200000480007A
:4000000005520040025B00400164004005650040620601403A0701400109014058140140561501406B1601404B17014005190140151A0140481B014003400140024101408E
:4000400002420140034301400246014003470140064801401B490140054C01400D4D014005500140015101401855199C618064407C0427842F84870F850F867287388A7274
:400080008B380024011F03600418055C0723080809020C1C0D730EE10F0C1060136314FF1508181C190C1AE21CE71D031E182204244025042810297F2D012E63312C32803D
:4000C0003310341F354C3660370F38083A203B823F04580459045C225F018003820484D38511860C87268C8A8D2C8E148F13942095119645970E9B2C9F08A608A8D3AA0475
:40010000AB13AF10B0C0B10FB230B32AB40FB710B80ABA20BB0ABE01BF40C004C604C9FFCA07CBFFCC40CD20CEF0CF05D008D401D804D904DA04DB04DC33DD33DF01E040EC
:40014000E1A8E240E32000060243044006880720080809080C040D800E8410101208140115201620170118041A601C081E051F08224A2340245025D128082A402C042D2017
:400180002E883010329834013645372038043B403C083D823E303F8042405108528058205A885B0279207A04C0FDC2F4C4F6CA7CCCFECEFAD001D60FEE04EE040E021A024B
:4001C0001C01230125022B0131013302340136023A083E503F054005450449FF4A074BFF4C404D204EF04F055008580459045A045C035D025F01604061A862406320801498
:4002000081068328844085268718880989408A108E03941095149728981C99269A229B08A42CA611A72AA830AA0CAB10AF01B120B260B31EB540B61FB701B808BB08BF1141
:40024000C062C103C5C0C6EBC80EC9FFCAFFCBFFCEF0CF44D00CD401D804D904DA04DB04DC22DD22DF01E6C0EA40EB02008004100540065009800A040E281410172018012F
:4002800019181C101DC01F042205244425042608272129202A062E802F24341036243C023D083E203F024410452048104A124E084F0251205210532056605C645E016C20BE
:4002C0006D106F42740875817608800881A0820284618629882089108A018B028C018D118F409204960897089A849D089F01A226A410A504A720AAC0AC40AD10C0F1C263C1
:40030000C460CA77CC60CEE0D060D228D6F0E2D2E6E5E810EC21EE0800220251056107160B081001120E1444155C1631170319611B0E24E7272328E72B1C2C8030073160EC
:400340003260330F3418351A368039023B283E103F014051410642034402450C46E0480949FF4AFF4BFF4C624DA04EF04F41500C56025711580459045A045B045C225D222E
:400380005F016640670269106A306B106D106E106F128510870C8B2091409303950C971199099B109D10A11CA302A514A601AA01AB20B001B11FB520B740BA20BE01BF501A
:4003C000C023C106C50BC60CC70EC815C9FFCAFFCBFFCEF0CF44D00CD418D804D904DA04DB04DC32DD23DF01E6C0EA40EB020680081009100E5010201120154017141920BB
:400400001B011DA01ED2210222402304262629042A012B082F2431023298362438043A103C203D0840044108441045A049044A084C204D204F805004524456105A015C107B
:4004400063066D406F1474407608772089088A04901492219408952096189A019D209EC89F21A118A288A348A641B021B404B702C010C230C4E6CA67CC6FCE66D076D234D8
:40048000D621D80C89088A048B01E080E6200121034A05E709E70D020F151544172A1D8031073360358037183F405602571159045B045C305D305F01045206040C600E403E
:4004C0000F121528160217011C111D101E401F08204021942228230824042508260127012C602E402F08324836203701384239143C043D403E023F104580460447084D0268
:400500004E06561059105C016520668069146A80702072027310810A8203861089208C018D408E809208A301A508C0D0C2F0C4F0CAF0CCAACEFFD070D230D684D830E020A9
:40054000E410E810EC21EE0833203680CC30A680A720A680A720A680AB20EE201B04C6084402AB04D004030420802408A680C040C860538056205A825C015F20620165010D
:4005800070018001810186018A208BA08C018E41AB04AE80B040B404D4E0D6E0D8C0DC80E2A0E640E880EE101F8034019C02C601CC01128070048E809008A804AF80B001E0
:4005C000B402C408DC01E202E808EC04000C0A0C100C1A0C1C08000F4110000000000004F3180C00C30400201F5CE0820C00000004000043FF0000001CDFE3008208000057
:4006000000C7E318081C00C12C800F581020C01F00020A80000010002306050001E0C0000AFFFFFF62A0F0410C00000018000000040404043333000100000000000040026F
:40064000001030100010101200000000000000000000000000000000F00000F00000000003000000880040888800880000000000040000000000000000FFFF00FF000000B4
:40068000000000000000000000000000000000000000000000000000000000000000000000000000000000000000000000000000000000000000000000000000000000003A
:4006C00000000000000000000000000000000000000000000000000000000000000000000000000000000000000000000000000000000000000000000000000000000000FA
:4007000000000000000000000000000000000000000000000000000000000000000000000000000000000000000000000000000000000000000000000000000000000000B9
:400740000000000000000000000000000000000000000000000000000000000000000000000000000000000000000000000000000000000000000000000000000000000079
:0200000490006A
:0400000000004005B7
:0200000490105A
:04000000BC90ACAF55
:0200000490303A
:02000000584F57
:0200000490402A
:4000000000000000000000000000000000000000000000000000000000000000000000000000000000000000000000000000000000000000000000000000000000000000C0
:400040000000000000000000000000000000000000000000000000000000000000000000000000000000000000000000000000000000000000000000000000000000000080
:400080000000000000000000000000000000000000000000000000000000000000000000000000000000000000000000000000000000000000000000000000000000000040
:4000C0000000000000000000000000000000000000000000000000000000000000000000000000000000000000000000000000000000000000000000000000000000000000
:0200000490501A
:0C00000000012E16106900012E2B68B8BC
:00000001FF